{
  "_format": "hh-sol-artifact-1",
  "contractName": "LoanLienManager",
  "sourceName": "contracts/LoanLienManager.sol",
  "abi": [
    {
      "inputs": [
        {
          "internalType": "address",
          "name": "_propertyNFTContract",
          "type": "address"
        }
      ],
      "stateMutability": "nonpayable",
      "type": "constructor"
    },
    {
      "inputs": [
        {
          "internalType": "address",
          "name": "owner",
          "type": "address"
        }
      ],
      "name": "OwnableInvalidOwner",
      "type": "error"
    },
    {
      "inputs": [
        {
          "internalType": "address",
          "name": "account",
          "type": "address"
        }
      ],
      "name": "OwnableUnauthorizedAccount",
      "type": "error"
    },
    {
      "anonymous": false,
      "inputs": [
        {
          "indexed": true,
          "internalType": "uint256",
          "name": "propertyId",
          "type": "uint256"
        },
        {
          "indexed": true,
          "internalType": "address",
          "name": "borrower",
          "type": "address"
        },
        {
          "indexed": true,
          "internalType": "address",
          "name": "lender",
          "type": "address"
        },
        {
          "indexed": false,
          "internalType": "uint256",
          "name": "loanAmount",
          "type": "uint256"
        }
      ],
      "name": "LienGranted",
      "type": "event"
    },
    {
      "anonymous": false,
      "inputs": [
        {
          "indexed": true,
          "internalType": "uint256",
          "name": "propertyId",
          "type": "uint256"
        },
        {
          "indexed": true,
          "internalType": "address",
          "name": "borrower",
          "type": "address"
        },
        {
          "indexed": false,
          "internalType": "uint256",
          "name": "finalBalance",
          "type": "uint256"
        }
      ],
      "name": "LienReleased",
      "type": "event"
    },
    {
      "anonymous": false,
      "inputs": [
        {
          "indexed": true,
          "internalType": "uint256",
          "name": "propertyId",
          "type": "uint256"
        },
        {
          "indexed": false,
          "internalType": "uint256",
          "name": "amountPaid",
          "type": "uint256"
        },
        {
          "indexed": false,
          "internalType": "uint256",
          "name": "newBalance",
          "type": "uint256"
        }
      ],
      "name": "LoanPaymentReceived",
      "type": "event"
    },
    {
      "anonymous": false,
      "inputs": [
        {
          "indexed": true,
          "internalType": "address",
          "name": "previousOwner",
          "type": "address"
        },
        {
          "indexed": true,
          "internalType": "address",
          "name": "newOwner",
          "type": "address"
        }
      ],
      "name": "OwnershipTransferred",
      "type": "event"
    },
    {
      "inputs": [
        {
          "internalType": "uint256",
          "name": "",
          "type": "uint256"
        }
      ],
      "name": "activeLiens",
      "outputs": [
        {
          "internalType": "address",
          "name": "borrower",
          "type": "address"
        },
        {
          "internalType": "address",
          "name": "lender",
          "type": "address"
        },
        {
          "internalType": "uint256",
          "name": "loanAmount",
          "type": "uint256"
        },
        {
          "internalType": "uint256",
          "name": "outstandingBalance",
          "type": "uint256"
        },
        {
          "internalType": "uint256",
          "name": "timestampGranted",
          "type": "uint256"
        },
        {
          "internalType": "bool",
          "name": "isActive",
          "type": "bool"
        },
        {
          "internalType": "bytes32",
          "name": "externalLoanIdHash",
          "type": "bytes32"
        }
      ],
      "stateMutability": "view",
      "type": "function"
    },
    {
      "inputs": [
        {
          "internalType": "uint256",
          "name": "_propertyId",
          "type": "uint256"
        },
        {
          "internalType": "address",
          "name": "_borrower",
          "type": "address"
        },
        {
          "internalType": "address",
          "name": "_lender",
          "type": "address"
        },
        {
          "internalType": "uint256",
          "name": "_loanAmount",
          "type": "uint256"
        },
        {
          "internalType": "bytes32",
          "name": "_externalLoanIdHash",
          "type": "bytes32"
        }
      ],
      "name": "grantLien",
      "outputs": [],
      "stateMutability": "nonpayable",
      "type": "function"
    },
    {
      "inputs": [],
      "name": "owner",
      "outputs": [
        {
          "internalType": "address",
          "name": "",
          "type": "address"
        }
      ],
      "stateMutability": "view",
      "type": "function"
    },
    {
      "inputs": [],
      "name": "propertyNFTContract",
      "outputs": [
        {
          "internalType": "address",
          "name": "",
          "type": "address"
        }
      ],
      "stateMutability": "view",
      "type": "function"
    },
    {
      "inputs": [
        {
          "internalType": "uint256",
          "name": "_propertyId",
          "type": "uint256"
        },
        {
          "internalType": "uint256",
          "name": "_amountPaid",
          "type": "uint256"
        }
      ],
      "name": "recordPayment",
      "outputs": [],
      "stateMutability": "nonpayable",
      "type": "function"
    },
    {
      "inputs": [
        {
          "internalType": "uint256",
          "name": "_propertyId",
          "type": "uint256"
        }
      ],
      "name": "releaseLien",
      "outputs": [],
      "stateMutability": "nonpayable",
      "type": "function"
    },
    {
      "inputs": [],
      "name": "renounceOwnership",
      "outputs": [],
      "stateMutability": "nonpayable",
      "type": "function"
    },
    {
      "inputs": [
        {
          "internalType": "address",
          "name": "newOwner",
          "type": "address"
        }
      ],
      "name": "transferOwnership",
      "outputs": [],
      "stateMutability": "nonpayable",
      "type": "function"
    }
  ],
  "bytecode": "0x60806040523480156200001157600080fd5b5060405162001537380380620015378339818101604052810190620000379190620002a7565b33600073ffffffffffffffffffffffffffffffffffffffff168173ffffffffffffffffffffffffffffffffffffffff1603620000ad5760006040517f1e4fbdf7000000000000000000000000000000000000000000000000000000008152600401620000a49190620002ea565b60405180910390fd5b620000be816200017960201b60201c565b50600073ffffffffffffffffffffffffffffffffffffffff168173ffffffffffffffffffffffffffffffffffffffff160362000131576040517f08c379a000000000000000000000000000000000000000000000000000000000815260040162000128906200038e565b60405180910390fd5b80600160006101000a81548173ffffffffffffffffffffffffffffffffffffffff021916908373ffffffffffffffffffffffffffffffffffffffff16021790555050620003b0565b60008060009054906101000a900473ffffffffffffffffffffffffffffffffffffffff169050816000806101000a81548173ffffffffffffffffffffffffffffffffffffffff021916908373ffffffffffffffffffffffffffffffffffffffff1602179055508173ffffffffffffffffffffffffffffffffffffffff168173ffffffffffffffffffffffffffffffffffffffff167f8be0079c531659141344cd1fd0a4f28419497f9722a3daafe3b4186f6b6457e060405160405180910390a35050565b600080fd5b600073ffffffffffffffffffffffffffffffffffffffff82169050919050565b60006200026f8262000242565b9050919050565b620002818162000262565b81146200028d57600080fd5b50565b600081519050620002a18162000276565b92915050565b600060208284031215620002c057620002bf6200023d565b5b6000620002d08482850162000290565b91505092915050565b620002e48162000262565b82525050565b6000602082019050620003016000830184620002d9565b92915050565b600082825260208201905092915050565b7f50726f7065727479204e465420636f6e7472616374206164647265737320636160008201527f6e6e6f74206265207a65726f0000000000000000000000000000000000000000602082015250565b600062000376602c8362000307565b9150620003838262000318565b604082019050919050565b60006020820190508181036000830152620003a98162000367565b9050919050565b61117780620003c06000396000f3fe608060405234801561001057600080fd5b50600436106100885760003560e01c8063715018a61161005b578063715018a6146101195780638da5cb5b146101235780639824b03214610141578063f2fde38b1461015d57610088565b80630b879bc21461008d5780631c296d7d146100a95780632cdd2ba8146100df57806356b2d261146100fb575b600080fd5b6100a760048036038101906100a29190610a26565b610179565b005b6100c360048036038101906100be9190610a66565b6102a4565b6040516100d69796959493929190610b17565b60405180910390f35b6100f960048036038101906100f49190610bde565b610333565b005b610103610663565b6040516101109190610c59565b60405180910390f35b610121610689565b005b61012b61069d565b6040516101389190610c59565b60405180910390f35b61015b60048036038101906101569190610a66565b6106c6565b005b61017760048036038101906101729190610c74565b610812565b005b610181610898565b60006002600084815260200190815260200160002090508060050160009054906101000a900460ff166101e9576040517f08c379a00000000000000000000000000000000000000000000000000000000081526004016101e090610cfe565b60405180910390fd5b8181600301541015610230576040517f08c379a000000000000000000000000000000000000000000000000000000000815260040161022790610d90565b60405180910390fd5b818160030160008282546102449190610ddf565b92505081905550827fed0a499024ff9ecaa83eb6bdb7fedccbd1d1fbdc19928c8f5d20708896405cc2838360030154604051610281929190610e13565b60405180910390a2600081600301540361029f5761029e836106c6565b5b505050565b60026020528060005260406000206000915090508060000160009054906101000a900473ffffffffffffffffffffffffffffffffffffffff16908060010160009054906101000a900473ffffffffffffffffffffffffffffffffffffffff16908060020154908060030154908060040154908060050160009054906101000a900460ff16908060060154905087565b61033b610898565b6002600086815260200190815260200160002060050160009054906101000a900460ff161561039f576040517f08c379a000000000000000000000000000000000000000000000000000000000815260040161039690610eae565b60405180910390fd5b8373ffffffffffffffffffffffffffffffffffffffff16600160009054906101000a900473ffffffffffffffffffffffffffffffffffffffff1673ffffffffffffffffffffffffffffffffffffffff16636352211e876040518263ffffffff1660e01b81526004016104119190610ece565b602060405180830381865afa15801561042e573d6000803e3d6000fd5b505050506040513d601f19601f820116820180604052508101906104529190610efe565b73ffffffffffffffffffffffffffffffffffffffff16146104a8576040517f08c379a000000000000000000000000000000000000000000000000000000000815260040161049f90610f9d565b60405180910390fd5b6040518060e001604052808573ffffffffffffffffffffffffffffffffffffffff1681526020018473ffffffffffffffffffffffffffffffffffffffff168152602001838152602001838152602001428152602001600115158152602001828152506002600087815260200190815260200160002060008201518160000160006101000a81548173ffffffffffffffffffffffffffffffffffffffff021916908373ffffffffffffffffffffffffffffffffffffffff16021790555060208201518160010160006101000a81548173ffffffffffffffffffffffffffffffffffffffff021916908373ffffffffffffffffffffffffffffffffffffffff16021790555060408201518160020155606082015181600301556080820151816004015560a08201518160050160006101000a81548160ff02191690831515021790555060c082015181600601559050508273ffffffffffffffffffffffffffffffffffffffff168473ffffffffffffffffffffffffffffffffffffffff16867f70962e919089b46c3ee69350d32291fb406776ea7fe884bb4dec46915dc4ece5856040516106549190610ece565b60405180910390a45050505050565b600160009054906101000a900473ffffffffffffffffffffffffffffffffffffffff1681565b610691610898565b61069b600061091f565b565b60008060009054906101000a900473ffffffffffffffffffffffffffffffffffffffff16905090565b6106ce610898565b60006002600083815260200190815260200160002090508060050160009054906101000a900460ff16610736576040517f08c379a000000000000000000000000000000000000000000000000000000000815260040161072d9061102f565b60405180910390fd5b600081600301541461077d576040517f08c379a0000000000000000000000000000000000000000000000000000000008152600401610774906110c1565b60405180910390fd5b60008160050160006101000a81548160ff0219169083151502179055508060000160009054906101000a900473ffffffffffffffffffffffffffffffffffffffff1673ffffffffffffffffffffffffffffffffffffffff16827fd4192411ed7eafff9a934bc07ce51c004fc26b56f0cba04b2b1207903f94cdc660006040516108069190611126565b60405180910390a35050565b61081a610898565b600073ffffffffffffffffffffffffffffffffffffffff168173ffffffffffffffffffffffffffffffffffffffff160361088c5760006040517f1e4fbdf70000000000000000000000000000000000000000000000000000000081526004016108839190610c59565b60405180910390fd5b6108958161091f565b50565b6108a06109e3565b73ffffffffffffffffffffffffffffffffffffffff166108be61069d565b73ffffffffffffffffffffffffffffffffffffffff161461091d576108e16109e3565b6040517f118cdaa70000000000000000000000000000000000000000000000000000000081526004016109149190610c59565b60405180910390fd5b565b60008060009054906101000a900473ffffffffffffffffffffffffffffffffffffffff169050816000806101000a81548173ffffffffffffffffffffffffffffffffffffffff021916908373ffffffffffffffffffffffffffffffffffffffff1602179055508173ffffffffffffffffffffffffffffffffffffffff168173ffffffffffffffffffffffffffffffffffffffff167f8be0079c531659141344cd1fd0a4f28419497f9722a3daafe3b4186f6b6457e060405160405180910390a35050565b600033905090565b600080fd5b6000819050919050565b610a03816109f0565b8114610a0e57600080fd5b50565b600081359050610a20816109fa565b92915050565b60008060408385031215610a3d57610a3c6109eb565b5b6000610a4b85828601610a11565b9250506020610a5c85828601610a11565b9150509250929050565b600060208284031215610a7c57610a7b6109eb565b5b6000610a8a84828501610a11565b91505092915050565b600073ffffffffffffffffffffffffffffffffffffffff82169050919050565b6000610abe82610a93565b9050919050565b610ace81610ab3565b82525050565b610add816109f0565b82525050565b60008115159050919050565b610af881610ae3565b82525050565b6000819050919050565b610b1181610afe565b82525050565b600060e082019050610b2c600083018a610ac5565b610b396020830189610ac5565b610b466040830188610ad4565b610b536060830187610ad4565b610b606080830186610ad4565b610b6d60a0830185610aef565b610b7a60c0830184610b08565b98975050505050505050565b610b8f81610ab3565b8114610b9a57600080fd5b50565b600081359050610bac81610b86565b92915050565b610bbb81610afe565b8114610bc657600080fd5b50565b600081359050610bd881610bb2565b92915050565b600080600080600060a08688031215610bfa57610bf96109eb565b5b6000610c0888828901610a11565b9550506020610c1988828901610b9d565b9450506040610c2a88828901610b9d565b9350506060610c3b88828901610a11565b9250506080610c4c88828901610bc9565b9150509295509295909350565b6000602082019050610c6e6000830184610ac5565b92915050565b600060208284031215610c8a57610c896109eb565b5b6000610c9884828501610b9d565b91505092915050565b600082825260208201905092915050565b7f4e6f20616374697665206c69656e206f6e20746869732070726f706572747900600082015250565b6000610ce8601f83610ca1565b9150610cf382610cb2565b602082019050919050565b60006020820190508181036000830152610d1781610cdb565b9050919050565b7f416d6f756e7420706169642065786365656473206f75747374616e64696e672060008201527f62616c616e636500000000000000000000000000000000000000000000000000602082015250565b6000610d7a602783610ca1565b9150610d8582610d1e565b604082019050919050565b60006020820190508181036000830152610da981610d6d565b9050919050565b7f4e487b7100000000000000000000000000000000000000000000000000000000600052601160045260246000fd5b6000610dea826109f0565b9150610df5836109f0565b9250828203905081811115610e0d57610e0c610db0565b5b92915050565b6000604082019050610e286000830185610ad4565b610e356020830184610ad4565b9392505050565b7f4c69656e20616c726561647920616374697665206f6e20746869732070726f7060008201527f6572747900000000000000000000000000000000000000000000000000000000602082015250565b6000610e98602483610ca1565b9150610ea382610e3c565b604082019050919050565b60006020820190508181036000830152610ec781610e8b565b9050919050565b6000602082019050610ee36000830184610ad4565b92915050565b600081519050610ef881610b86565b92915050565b600060208284031215610f1457610f136109eb565b5b6000610f2284828501610ee9565b91505092915050565b7f426f72726f776572206d757374206f776e207468652070726f7065727479204e60008201527f4654000000000000000000000000000000000000000000000000000000000000602082015250565b6000610f87602283610ca1565b9150610f9282610f2b565b604082019050919050565b60006020820190508181036000830152610fb681610f7a565b9050919050565b7f4e6f20616374697665206c69656e20746f2072656c65617365206f6e2074686960008201527f732070726f706572747900000000000000000000000000000000000000000000602082015250565b6000611019602a83610ca1565b915061102482610fbd565b604082019050919050565b600060208201905081810360008301526110488161100c565b9050919050565b7f4c6f616e206e6f742066756c6c792072657061696420746f2072656c6561736560008201527f206c69656e000000000000000000000000000000000000000000000000000000602082015250565b60006110ab602583610ca1565b91506110b68261104f565b604082019050919050565b600060208201905081810360008301526110da8161109e565b9050919050565b6000819050919050565b6000819050919050565b600061111061110b611106846110e1565b6110eb565b6109f0565b9050919050565b611120816110f5565b82525050565b600060208201905061113b6000830184611117565b9291505056fea264697066735822122031d4b09952f1703fedc5486df1c7960eab2e53bfe31b8b5d81f505fb9faaafe564736f6c63430008140033",
  "linkReferences": {},
  "deployedLinkReferences": {}
}