{
  "_format": "hh-sol-artifact-1",
  "contractName": "PropertyShareToken",
  "sourceName": "contracts/PropertyShareToken.sol",
  "abi": [
    {
      "inputs": [
        {
          "internalType": "uint256",
          "name": "_propertyNFTId",
          "type": "uint256"
        },
        {
          "internalType": "address",
          "name": "_minter",
          "type": "address"
        },
        {
          "internalType": "uint256",
          "name": "_totalShares",
          "type": "uint256"
        }
      ],
      "stateMutability": "nonpayable",
      "type": "constructor"
    },
    {
      "inputs": [
        {
          "internalType": "address",
          "name": "spender",
          "type": "address"
        },
        {
          "internalType": "uint256",
          "name": "allowance",
          "type": "uint256"
        },
        {
          "internalType": "uint256",
          "name": "needed",
          "type": "uint256"
        }
      ],
      "name": "ERC20InsufficientAllowance",
      "type": "error"
    },
    {
      "inputs": [
        {
          "internalType": "address",
          "name": "sender",
          "type": "address"
        },
        {
          "internalType": "uint256",
          "name": "balance",
          "type": "uint256"
        },
        {
          "internalType": "uint256",
          "name": "needed",
          "type": "uint256"
        }
      ],
      "name": "ERC20InsufficientBalance",
      "type": "error"
    },
    {
      "inputs": [
        {
          "internalType": "address",
          "name": "approver",
          "type": "address"
        }
      ],
      "name": "ERC20InvalidApprover",
      "type": "error"
    },
    {
      "inputs": [
        {
          "internalType": "address",
          "name": "receiver",
          "type": "address"
        }
      ],
      "name": "ERC20InvalidReceiver",
      "type": "error"
    },
    {
      "inputs": [
        {
          "internalType": "address",
          "name": "sender",
          "type": "address"
        }
      ],
      "name": "ERC20InvalidSender",
      "type": "error"
    },
    {
      "inputs": [
        {
          "internalType": "address",
          "name": "spender",
          "type": "address"
        }
      ],
      "name": "ERC20InvalidSpender",
      "type": "error"
    },
    {
      "anonymous": false,
      "inputs": [
        {
          "indexed": true,
          "internalType": "address",
          "name": "owner",
          "type": "address"
        },
        {
          "indexed": true,
          "internalType": "address",
          "name": "spender",
          "type": "address"
        },
        {
          "indexed": false,
          "internalType": "uint256",
          "name": "value",
          "type": "uint256"
        }
      ],
      "name": "Approval",
      "type": "event"
    },
    {
      "anonymous": false,
      "inputs": [
        {
          "indexed": true,
          "internalType": "address",
          "name": "from",
          "type": "address"
        },
        {
          "indexed": true,
          "internalType": "address",
          "name": "to",
          "type": "address"
        },
        {
          "indexed": false,
          "internalType": "uint256",
          "name": "value",
          "type": "uint256"
        }
      ],
      "name": "Transfer",
      "type": "event"
    },
    {
      "inputs": [
        {
          "internalType": "address",
          "name": "owner",
          "type": "address"
        },
        {
          "internalType": "address",
          "name": "spender",
          "type": "address"
        }
      ],
      "name": "allowance",
      "outputs": [
        {
          "internalType": "uint256",
          "name": "",
          "type": "uint256"
        }
      ],
      "stateMutability": "view",
      "type": "function"
    },
    {
      "inputs": [
        {
          "internalType": "address",
          "name": "spender",
          "type": "address"
        },
        {
          "internalType": "uint256",
          "name": "value",
          "type": "uint256"
        }
      ],
      "name": "approve",
      "outputs": [
        {
          "internalType": "bool",
          "name": "",
          "type": "bool"
        }
      ],
      "stateMutability": "nonpayable",
      "type": "function"
    },
    {
      "inputs": [
        {
          "internalType": "address",
          "name": "account",
          "type": "address"
        }
      ],
      "name": "balanceOf",
      "outputs": [
        {
          "internalType": "uint256",
          "name": "",
          "type": "uint256"
        }
      ],
      "stateMutability": "view",
      "type": "function"
    },
    {
      "inputs": [],
      "name": "decimals",
      "outputs": [
        {
          "internalType": "uint8",
          "name": "",
          "type": "uint8"
        }
      ],
      "stateMutability": "view",
      "type": "function"
    },
    {
      "inputs": [],
      "name": "name",
      "outputs": [
        {
          "internalType": "string",
          "name": "",
          "type": "string"
        }
      ],
      "stateMutability": "view",
      "type": "function"
    },
    {
      "inputs": [],
      "name": "propertyNFTId",
      "outputs": [
        {
          "internalType": "uint256",
          "name": "",
          "type": "uint256"
        }
      ],
      "stateMutability": "view",
      "type": "function"
    },
    {
      "inputs": [],
      "name": "symbol",
      "outputs": [
        {
          "internalType": "string",
          "name": "",
          "type": "string"
        }
      ],
      "stateMutability": "view",
      "type": "function"
    },
    {
      "inputs": [],
      "name": "totalSupply",
      "outputs": [
        {
          "internalType": "uint256",
          "name": "",
          "type": "uint256"
        }
      ],
      "stateMutability": "view",
      "type": "function"
    },
    {
      "inputs": [
        {
          "internalType": "address",
          "name": "to",
          "type": "address"
        },
        {
          "internalType": "uint256",
          "name": "value",
          "type": "uint256"
        }
      ],
      "name": "transfer",
      "outputs": [
        {
          "internalType": "bool",
          "name": "",
          "type": "bool"
        }
      ],
      "stateMutability": "nonpayable",
      "type": "function"
    },
    {
      "inputs": [
        {
          "internalType": "address",
          "name": "from",
          "type": "address"
        },
        {
          "internalType": "address",
          "name": "to",
          "type": "address"
        },
        {
          "internalType": "uint256",
          "name": "value",
          "type": "uint256"
        }
      ],
      "name": "transferFrom",
      "outputs": [
        {
          "internalType": "bool",
          "name": "",
          "type": "bool"
        }
      ],
      "stateMutability": "nonpayable",
      "type": "function"
    }
  ],
  "bytecode": "0x60806040523480156200001157600080fd5b5060405162001df138038062001df18339818101604052810190620000379190620006c3565b62000048836200010d60201b60201c565b6040516020016200005a919062000838565b6040516020818303038152906040526200007a846200010d60201b60201c565b6040516020016200008c9190620008bb565b6040516020818303038152906040528160039081620000ac919062000b46565b508060049081620000be919062000b46565b505050826005819055506200010482620000dd620001ec60201b60201c565b600a620000eb919062000dbd565b83620000f8919062000e0e565b620001f560201b60201c565b50505062000f5c565b60606000600162000124846200028260201b60201c565b01905060008167ffffffffffffffff811115620001465762000145620008e1565b5b6040519080825280601f01601f191660200182016040528015620001795781602001600182028036833780820191505090505b509050600082602083010190505b600115620001e1578080600190039150507f3031323334353637383961626364656600000000000000000000000000000000600a86061a8153600a8581620001d457620001d362000e59565b5b0494506000850362000187575b819350505050919050565b60006012905090565b600073ffffffffffffffffffffffffffffffffffffffff168273ffffffffffffffffffffffffffffffffffffffff16036200026a5760006040517fec442f0500000000000000000000000000000000000000000000000000000000815260040162000261919062000e99565b60405180910390fd5b6200027e60008383620003ee60201b60201c565b5050565b600080600090507a184f03e93ff9f4daa797ed6e38ed64bf6a1f0100000000000000008310620002e4577a184f03e93ff9f4daa797ed6e38ed64bf6a1f0100000000000000008381620002da57620002d962000e59565b5b0492506040810190505b6d04ee2d6d415b85acef8100000000831062000325576d04ee2d6d415b85acef810000000083816200031b576200031a62000e59565b5b0492506020810190505b662386f26fc1000083106200035857662386f26fc1000083816200034e576200034d62000e59565b5b0492506010810190505b6305f5e100831062000385576305f5e10083816200037b576200037a62000e59565b5b0492506008810190505b6127108310620003ae576127108381620003a457620003a362000e59565b5b0492506004810190505b60648310620003d55760648381620003cb57620003ca62000e59565b5b0492506002810190505b600a8310620003e5576001810190505b80915050919050565b600073ffffffffffffffffffffffffffffffffffffffff168373ffffffffffffffffffffffffffffffffffffffff16036200044457806002600082825462000437919062000eb6565b925050819055506200051a565b60008060008573ffffffffffffffffffffffffffffffffffffffff1673ffffffffffffffffffffffffffffffffffffffff16815260200190815260200160002054905081811015620004d3578381836040517fe450d38c000000000000000000000000000000000000000000000000000000008152600401620004ca9392919062000f02565b60405180910390fd5b8181036000808673ffffffffffffffffffffffffffffffffffffffff1673ffffffffffffffffffffffffffffffffffffffff16815260200190815260200160002081905550505b600073ffffffffffffffffffffffffffffffffffffffff168273ffffffffffffffffffffffffffffffffffffffff1603620005655780600260008282540392505081905550620005b2565b806000808473ffffffffffffffffffffffffffffffffffffffff1673ffffffffffffffffffffffffffffffffffffffff168152602001908152602001600020600082825401925050819055505b8173ffffffffffffffffffffffffffffffffffffffff168373ffffffffffffffffffffffffffffffffffffffff167fddf252ad1be2c89b69c2b068fc378daa952ba7f163c4a11628f55a4df523b3ef8360405162000611919062000f3f565b60405180910390a3505050565b600080fd5b6000819050919050565b620006388162000623565b81146200064457600080fd5b50565b60008151905062000658816200062d565b92915050565b600073ffffffffffffffffffffffffffffffffffffffff82169050919050565b60006200068b826200065e565b9050919050565b6200069d816200067e565b8114620006a957600080fd5b50565b600081519050620006bd8162000692565b92915050565b600080600060608486031215620006df57620006de6200061e565b5b6000620006ef8682870162000647565b93505060206200070286828701620006ac565b9250506040620007158682870162000647565b9150509250925092565b600081905092915050565b7f444150452050726f706572747920230000000000000000000000000000000000600082015250565b600062000762600f836200071f565b91506200076f826200072a565b600f82019050919050565b600081519050919050565b60005b83811015620007a557808201518184015260208101905062000788565b60008484015250505050565b6000620007be826200077a565b620007ca81856200071f565b9350620007dc81856020860162000785565b80840191505092915050565b7f2053686172657300000000000000000000000000000000000000000000000000600082015250565b6000620008206007836200071f565b91506200082d82620007e8565b600782019050919050565b6000620008458262000753565b9150620008538284620007b1565b9150620008608262000811565b915081905092915050565b7f444150455f530000000000000000000000000000000000000000000000000000600082015250565b6000620008a36006836200071f565b9150620008b0826200086b565b600682019050919050565b6000620008c88262000894565b9150620008d68284620007b1565b915081905092915050565b7f4e487b7100000000000000000000000000000000000000000000000000000000600052604160045260246000fd5b7f4e487b7100000000000000000000000000000000000000000000000000000000600052602260045260246000fd5b600060028204905060018216806200095857607f821691505b6020821081036200096e576200096d62000910565b5b50919050565b60008190508160005260206000209050919050565b60006020601f8301049050919050565b600082821b905092915050565b600060088302620009d87fffffffffffffffffffffffffffffffffffffffffffffffffffffffffffffffff8262000999565b620009e4868362000999565b95508019841693508086168417925050509392505050565b6000819050919050565b600062000a2762000a2162000a1b8462000623565b620009fc565b62000623565b9050919050565b6000819050919050565b62000a438362000a06565b62000a5b62000a528262000a2e565b848454620009a6565b825550505050565b600090565b62000a7262000a63565b62000a7f81848462000a38565b505050565b5b8181101562000aa75762000a9b60008262000a68565b60018101905062000a85565b5050565b601f82111562000af65762000ac08162000974565b62000acb8462000989565b8101602085101562000adb578190505b62000af362000aea8562000989565b83018262000a84565b50505b505050565b600082821c905092915050565b600062000b1b6000198460080262000afb565b1980831691505092915050565b600062000b36838362000b08565b9150826002028217905092915050565b62000b51826200077a565b67ffffffffffffffff81111562000b6d5762000b6c620008e1565b5b62000b7982546200093f565b62000b8682828562000aab565b600060209050601f83116001811462000bbe576000841562000ba9578287015190505b62000bb5858262000b28565b86555062000c25565b601f19841662000bce8662000974565b60005b8281101562000bf85784890151825560018201915060208501945060208101905062000bd1565b8683101562000c18578489015162000c14601f89168262000b08565b8355505b6001600288020188555050505b505050505050565b7f4e487b7100000000000000000000000000000000000000000000000000000000600052601160045260246000fd5b60008160011c9050919050565b6000808291508390505b600185111562000cbb5780860481111562000c935762000c9262000c2d565b5b600185161562000ca35780820291505b808102905062000cb38562000c5c565b945062000c73565b94509492505050565b60008262000cd6576001905062000da9565b8162000ce6576000905062000da9565b816001811462000cff576002811462000d0a5762000d40565b600191505062000da9565b60ff84111562000d1f5762000d1e62000c2d565b5b8360020a91508482111562000d395762000d3862000c2d565b5b5062000da9565b5060208310610133831016604e8410600b841016171562000d7a5782820a90508381111562000d745762000d7362000c2d565b5b62000da9565b62000d89848484600162000c69565b9250905081840481111562000da35762000da262000c2d565b5b81810290505b9392505050565b600060ff82169050919050565b600062000dca8262000623565b915062000dd78362000db0565b925062000e067fffffffffffffffffffffffffffffffffffffffffffffffffffffffffffffffff848462000cc4565b905092915050565b600062000e1b8262000623565b915062000e288362000623565b925082820262000e388162000623565b9150828204841483151762000e525762000e5162000c2d565b5b5092915050565b7f4e487b7100000000000000000000000000000000000000000000000000000000600052601260045260246000fd5b62000e93816200067e565b82525050565b600060208201905062000eb0600083018462000e88565b92915050565b600062000ec38262000623565b915062000ed08362000623565b925082820190508082111562000eeb5762000eea62000c2d565b5b92915050565b62000efc8162000623565b82525050565b600060608201905062000f19600083018662000e88565b62000f28602083018562000ef1565b62000f37604083018462000ef1565b949350505050565b600060208201905062000f56600083018462000ef1565b92915050565b610e858062000f6c6000396000f3fe608060405234801561001057600080fd5b506004361061009e5760003560e01c806370a082311161006657806370a082311461015d57806395d89b411461018d578063a51689e9146101ab578063a9059cbb146101c9578063dd62ed3e146101f95761009e565b806306fdde03146100a3578063095ea7b3146100c157806318160ddd146100f157806323b872dd1461010f578063313ce5671461013f575b600080fd5b6100ab610229565b6040516100b89190610ad9565b60405180910390f35b6100db60048036038101906100d69190610b94565b6102bb565b6040516100e89190610bef565b60405180910390f35b6100f96102de565b6040516101069190610c19565b60405180910390f35b61012960048036038101906101249190610c34565b6102e8565b6040516101369190610bef565b60405180910390f35b610147610317565b6040516101549190610ca3565b60405180910390f35b61017760048036038101906101729190610cbe565b610320565b6040516101849190610c19565b60405180910390f35b610195610368565b6040516101a29190610ad9565b60405180910390f35b6101b36103fa565b6040516101c09190610c19565b60405180910390f35b6101e360048036038101906101de9190610b94565b610400565b6040516101f09190610bef565b60405180910390f35b610213600480360381019061020e9190610ceb565b610423565b6040516102209190610c19565b60405180910390f35b60606003805461023890610d5a565b80601f016020809104026020016040519081016040528092919081815260200182805461026490610d5a565b80156102b15780601f10610286576101008083540402835291602001916102b1565b820191906000526020600020905b81548152906001019060200180831161029457829003601f168201915b5050505050905090565b6000806102c66104aa565b90506102d38185856104b2565b600191505092915050565b6000600254905090565b6000806102f36104aa565b90506103008582856104c4565b61030b858585610559565b60019150509392505050565b60006012905090565b60008060008373ffffffffffffffffffffffffffffffffffffffff1673ffffffffffffffffffffffffffffffffffffffff168152602001908152602001600020549050919050565b60606004805461037790610d5a565b80601f01602080910402602001604051908101604052809291908181526020018280546103a390610d5a565b80156103f05780601f106103c5576101008083540402835291602001916103f0565b820191906000526020600020905b8154815290600101906020018083116103d357829003601f168201915b5050505050905090565b60055481565b60008061040b6104aa565b9050610418818585610559565b600191505092915050565b6000600160008473ffffffffffffffffffffffffffffffffffffffff1673ffffffffffffffffffffffffffffffffffffffff16815260200190815260200160002060008373ffffffffffffffffffffffffffffffffffffffff1673ffffffffffffffffffffffffffffffffffffffff16815260200190815260200160002054905092915050565b600033905090565b6104bf838383600161064d565b505050565b60006104d08484610423565b90507fffffffffffffffffffffffffffffffffffffffffffffffffffffffffffffffff8110156105535781811015610543578281836040517ffb8f41b200000000000000000000000000000000000000000000000000000000815260040161053a93929190610d9a565b60405180910390fd5b6105528484848403600061064d565b5b50505050565b600073ffffffffffffffffffffffffffffffffffffffff168373ffffffffffffffffffffffffffffffffffffffff16036105cb5760006040517f96c6fd1e0000000000000000000000000000000000000000000000000000000081526004016105c29190610dd1565b60405180910390fd5b600073ffffffffffffffffffffffffffffffffffffffff168273ffffffffffffffffffffffffffffffffffffffff160361063d5760006040517fec442f050000000000000000000000000000000000000000000000000000000081526004016106349190610dd1565b60405180910390fd5b610648838383610824565b505050565b600073ffffffffffffffffffffffffffffffffffffffff168473ffffffffffffffffffffffffffffffffffffffff16036106bf5760006040517fe602df050000000000000000000000000000000000000000000000000000000081526004016106b69190610dd1565b60405180910390fd5b600073ffffffffffffffffffffffffffffffffffffffff168373ffffffffffffffffffffffffffffffffffffffff16036107315760006040517f94280d620000000000000000000000000000000000000000000000000000000081526004016107289190610dd1565b60405180910390fd5b81600160008673ffffffffffffffffffffffffffffffffffffffff1673ffffffffffffffffffffffffffffffffffffffff16815260200190815260200160002060008573ffffffffffffffffffffffffffffffffffffffff1673ffffffffffffffffffffffffffffffffffffffff16815260200190815260200160002081905550801561081e578273ffffffffffffffffffffffffffffffffffffffff168473ffffffffffffffffffffffffffffffffffffffff167f8c5be1e5ebec7d5bd14f71427d1e84f3dd0314c0f7b2291e5b200ac8c7c3b925846040516108159190610c19565b60405180910390a35b50505050565b600073ffffffffffffffffffffffffffffffffffffffff168373ffffffffffffffffffffffffffffffffffffffff160361087657806002600082825461086a9190610e1b565b92505081905550610949565b60008060008573ffffffffffffffffffffffffffffffffffffffff1673ffffffffffffffffffffffffffffffffffffffff16815260200190815260200160002054905081811015610902578381836040517fe450d38c0000000000000000000000000000000000000000000000000000000081526004016108f993929190610d9a565b60405180910390fd5b8181036000808673ffffffffffffffffffffffffffffffffffffffff1673ffffffffffffffffffffffffffffffffffffffff16815260200190815260200160002081905550505b600073ffffffffffffffffffffffffffffffffffffffff168273ffffffffffffffffffffffffffffffffffffffff160361099257806002600082825403925050819055506109df565b806000808473ffffffffffffffffffffffffffffffffffffffff1673ffffffffffffffffffffffffffffffffffffffff168152602001908152602001600020600082825401925050819055505b8173ffffffffffffffffffffffffffffffffffffffff168373ffffffffffffffffffffffffffffffffffffffff167fddf252ad1be2c89b69c2b068fc378daa952ba7f163c4a11628f55a4df523b3ef83604051610a3c9190610c19565b60405180910390a3505050565b600081519050919050565b600082825260208201905092915050565b60005b83811015610a83578082015181840152602081019050610a68565b60008484015250505050565b6000601f19601f8301169050919050565b6000610aab82610a49565b610ab58185610a54565b9350610ac5818560208601610a65565b610ace81610a8f565b840191505092915050565b60006020820190508181036000830152610af38184610aa0565b905092915050565b600080fd5b600073ffffffffffffffffffffffffffffffffffffffff82169050919050565b6000610b2b82610b00565b9050919050565b610b3b81610b20565b8114610b4657600080fd5b50565b600081359050610b5881610b32565b92915050565b6000819050919050565b610b7181610b5e565b8114610b7c57600080fd5b50565b600081359050610b8e81610b68565b92915050565b60008060408385031215610bab57610baa610afb565b5b6000610bb985828601610b49565b9250506020610bca85828601610b7f565b9150509250929050565b60008115159050919050565b610be981610bd4565b82525050565b6000602082019050610c046000830184610be0565b92915050565b610c1381610b5e565b82525050565b6000602082019050610c2e6000830184610c0a565b92915050565b600080600060608486031215610c4d57610c4c610afb565b5b6000610c5b86828701610b49565b9350506020610c6c86828701610b49565b9250506040610c7d86828701610b7f565b9150509250925092565b600060ff82169050919050565b610c9d81610c87565b82525050565b6000602082019050610cb86000830184610c94565b92915050565b600060208284031215610cd457610cd3610afb565b5b6000610ce284828501610b49565b91505092915050565b60008060408385031215610d0257610d01610afb565b5b6000610d1085828601610b49565b9250506020610d2185828601610b49565b9150509250929050565b7f4e487b7100000000000000000000000000000000000000000000000000000000600052602260045260246000fd5b60006002820490506001821680610d7257607f821691505b602082108103610d8557610d84610d2b565b5b50919050565b610d9481610b20565b82525050565b6000606082019050610daf6000830186610d8b565b610dbc6020830185610c0a565b610dc96040830184610c0a565b949350505050565b6000602082019050610de66000830184610d8b565b92915050565b7f4e487b7100000000000000000000000000000000000000000000000000000000600052601160045260246000fd5b6000610e2682610b5e565b9150610e3183610b5e565b9250828201905080821115610e4957610e48610dec565b5b9291505056fea2646970667358221220edfedd555f0f31efe5d45f7e6413086a94954c794cf5cc8616ca26b22de0539764736f6c63430008140033",
  "linkReferences": {},
  "deployedLinkReferences": {}
}