{
  "_format": "hh-sol-artifact-1",
  "contractName": "PropertyNFT",
  "sourceName": "contracts/PropertyNFT.sol",
  "abi": [
    {
      "inputs": [],
      "stateMutability": "nonpayable",
      "type": "constructor"
    },
    {
      "inputs": [
        {
          "internalType": "address",
          "name": "sender",
          "type": "address"
        },
        {
          "internalType": "uint256",
          "name": "tokenId",
          "type": "uint256"
        },
        {
          "internalType": "address",
          "name": "owner",
          "type": "address"
        }
      ],
      "name": "ERC721IncorrectOwner",
      "type": "error"
    },
    {
      "inputs": [
        {
          "internalType": "address",
          "name": "operator",
          "type": "address"
        },
        {
          "internalType": "uint256",
          "name": "tokenId",
          "type": "uint256"
        }
      ],
      "name": "ERC721InsufficientApproval",
      "type": "error"
    },
    {
      "inputs": [
        {
          "internalType": "address",
          "name": "approver",
          "type": "address"
        }
      ],
      "name": "ERC721InvalidApprover",
      "type": "error"
    },
    {
      "inputs": [
        {
          "internalType": "address",
          "name": "operator",
          "type": "address"
        }
      ],
      "name": "ERC721InvalidOperator",
      "type": "error"
    },
    {
      "inputs": [
        {
          "internalType": "address",
          "name": "owner",
          "type": "address"
        }
      ],
      "name": "ERC721InvalidOwner",
      "type": "error"
    },
    {
      "inputs": [
        {
          "internalType": "address",
          "name": "receiver",
          "type": "address"
        }
      ],
      "name": "ERC721InvalidReceiver",
      "type": "error"
    },
    {
      "inputs": [
        {
          "internalType": "address",
          "name": "sender",
          "type": "address"
        }
      ],
      "name": "ERC721InvalidSender",
      "type": "error"
    },
    {
      "inputs": [
        {
          "internalType": "uint256",
          "name": "tokenId",
          "type": "uint256"
        }
      ],
      "name": "ERC721NonexistentToken",
      "type": "error"
    },
    {
      "inputs": [
        {
          "internalType": "address",
          "name": "owner",
          "type": "address"
        }
      ],
      "name": "OwnableInvalidOwner",
      "type": "error"
    },
    {
      "inputs": [
        {
          "internalType": "address",
          "name": "account",
          "type": "address"
        }
      ],
      "name": "OwnableUnauthorizedAccount",
      "type": "error"
    },
    {
      "anonymous": false,
      "inputs": [
        {
          "indexed": true,
          "internalType": "address",
          "name": "owner",
          "type": "address"
        },
        {
          "indexed": true,
          "internalType": "address",
          "name": "approved",
          "type": "address"
        },
        {
          "indexed": true,
          "internalType": "uint256",
          "name": "tokenId",
          "type": "uint256"
        }
      ],
      "name": "Approval",
      "type": "event"
    },
    {
      "anonymous": false,
      "inputs": [
        {
          "indexed": true,
          "internalType": "address",
          "name": "owner",
          "type": "address"
        },
        {
          "indexed": true,
          "internalType": "address",
          "name": "operator",
          "type": "address"
        },
        {
          "indexed": false,
          "internalType": "bool",
          "name": "approved",
          "type": "bool"
        }
      ],
      "name": "ApprovalForAll",
      "type": "event"
    },
    {
      "anonymous": false,
      "inputs": [
        {
          "indexed": true,
          "internalType": "address",
          "name": "previousOwner",
          "type": "address"
        },
        {
          "indexed": true,
          "internalType": "address",
          "name": "newOwner",
          "type": "address"
        }
      ],
      "name": "OwnershipTransferred",
      "type": "event"
    },
    {
      "anonymous": false,
      "inputs": [
        {
          "indexed": true,
          "internalType": "uint256",
          "name": "propertyId",
          "type": "uint256"
        },
        {
          "indexed": false,
          "internalType": "string",
          "name": "ipfsHash",
          "type": "string"
        },
        {
          "indexed": false,
          "internalType": "address",
          "name": "shareTokenAddress",
          "type": "address"
        }
      ],
      "name": "PropertyTokenized",
      "type": "event"
    },
    {
      "anonymous": false,
      "inputs": [
        {
          "indexed": true,
          "internalType": "address",
          "name": "from",
          "type": "address"
        },
        {
          "indexed": true,
          "internalType": "address",
          "name": "to",
          "type": "address"
        },
        {
          "indexed": true,
          "internalType": "uint256",
          "name": "tokenId",
          "type": "uint256"
        }
      ],
      "name": "Transfer",
      "type": "event"
    },
    {
      "inputs": [
        {
          "internalType": "address",
          "name": "to",
          "type": "address"
        },
        {
          "internalType": "uint256",
          "name": "tokenId",
          "type": "uint256"
        }
      ],
      "name": "approve",
      "outputs": [],
      "stateMutability": "nonpayable",
      "type": "function"
    },
    {
      "inputs": [
        {
          "internalType": "address",
          "name": "owner",
          "type": "address"
        }
      ],
      "name": "balanceOf",
      "outputs": [
        {
          "internalType": "uint256",
          "name": "",
          "type": "uint256"
        }
      ],
      "stateMutability": "view",
      "type": "function"
    },
    {
      "inputs": [
        {
          "internalType": "uint256",
          "name": "tokenId",
          "type": "uint256"
        }
      ],
      "name": "getApproved",
      "outputs": [
        {
          "internalType": "address",
          "name": "",
          "type": "address"
        }
      ],
      "stateMutability": "view",
      "type": "function"
    },
    {
      "inputs": [
        {
          "internalType": "uint256",
          "name": "_propertyId",
          "type": "uint256"
        }
      ],
      "name": "getPropertyShareToken",
      "outputs": [
        {
          "internalType": "address",
          "name": "",
          "type": "address"
        }
      ],
      "stateMutability": "view",
      "type": "function"
    },
    {
      "inputs": [],
      "name": "getTokenCount",
      "outputs": [
        {
          "internalType": "uint256",
          "name": "",
          "type": "uint256"
        }
      ],
      "stateMutability": "view",
      "type": "function"
    },
    {
      "inputs": [
        {
          "internalType": "address",
          "name": "owner",
          "type": "address"
        },
        {
          "internalType": "address",
          "name": "operator",
          "type": "address"
        }
      ],
      "name": "isApprovedForAll",
      "outputs": [
        {
          "internalType": "bool",
          "name": "",
          "type": "bool"
        }
      ],
      "stateMutability": "view",
      "type": "function"
    },
    {
      "inputs": [],
      "name": "name",
      "outputs": [
        {
          "internalType": "string",
          "name": "",
          "type": "string"
        }
      ],
      "stateMutability": "view",
      "type": "function"
    },
    {
      "inputs": [],
      "name": "owner",
      "outputs": [
        {
          "internalType": "address",
          "name": "",
          "type": "address"
        }
      ],
      "stateMutability": "view",
      "type": "function"
    },
    {
      "inputs": [
        {
          "internalType": "uint256",
          "name": "tokenId",
          "type": "uint256"
        }
      ],
      "name": "ownerOf",
      "outputs": [
        {
          "internalType": "address",
          "name": "",
          "type": "address"
        }
      ],
      "stateMutability": "view",
      "type": "function"
    },
    {
      "inputs": [
        {
          "internalType": "uint256",
          "name": "",
          "type": "uint256"
        }
      ],
      "name": "propertyShares",
      "outputs": [
        {
          "internalType": "address",
          "name": "",
          "type": "address"
        }
      ],
      "stateMutability": "view",
      "type": "function"
    },
    {
      "inputs": [],
      "name": "renounceOwnership",
      "outputs": [],
      "stateMutability": "nonpayable",
      "type": "function"
    },
    {
      "inputs": [
        {
          "internalType": "address",
          "name": "from",
          "type": "address"
        },
        {
          "internalType": "address",
          "name": "to",
          "type": "address"
        },
        {
          "internalType": "uint256",
          "name": "tokenId",
          "type": "uint256"
        }
      ],
      "name": "safeTransferFrom",
      "outputs": [],
      "stateMutability": "nonpayable",
      "type": "function"
    },
    {
      "inputs": [
        {
          "internalType": "address",
          "name": "from",
          "type": "address"
        },
        {
          "internalType": "address",
          "name": "to",
          "type": "address"
        },
        {
          "internalType": "uint256",
          "name": "tokenId",
          "type": "uint256"
        },
        {
          "internalType": "bytes",
          "name": "data",
          "type": "bytes"
        }
      ],
      "name": "safeTransferFrom",
      "outputs": [],
      "stateMutability": "nonpayable",
      "type": "function"
    },
    {
      "inputs": [
        {
          "internalType": "address",
          "name": "operator",
          "type": "address"
        },
        {
          "internalType": "bool",
          "name": "approved",
          "type": "bool"
        }
      ],
      "name": "setApprovalForAll",
      "outputs": [],
      "stateMutability": "nonpayable",
      "type": "function"
    },
    {
      "inputs": [
        {
          "internalType": "bytes4",
          "name": "interfaceId",
          "type": "bytes4"
        }
      ],
      "name": "supportsInterface",
      "outputs": [
        {
          "internalType": "bool",
          "name": "",
          "type": "bool"
        }
      ],
      "stateMutability": "view",
      "type": "function"
    },
    {
      "inputs": [],
      "name": "symbol",
      "outputs": [
        {
          "internalType": "string",
          "name": "",
          "type": "string"
        }
      ],
      "stateMutability": "view",
      "type": "function"
    },
    {
      "inputs": [
        {
          "internalType": "uint256",
          "name": "tokenId",
          "type": "uint256"
        }
      ],
      "name": "tokenURI",
      "outputs": [
        {
          "internalType": "string",
          "name": "",
          "type": "string"
        }
      ],
      "stateMutability": "view",
      "type": "function"
    },
    {
      "inputs": [
        {
          "internalType": "string",
          "name": "_ipfsHashOfMetadata",
          "type": "string"
        },
        {
          "internalType": "uint256",
          "name": "_totalShares",
          "type": "uint256"
        }
      ],
      "name": "tokenizeProperty",
      "outputs": [
        {
          "internalType": "uint256",
          "name": "newPropertyId",
          "type": "uint256"
        }
      ],
      "stateMutability": "nonpayable",
      "type": "function"
    },
    {
      "inputs": [
        {
          "internalType": "address",
          "name": "from",
          "type": "address"
        },
        {
          "internalType": "address",
          "name": "to",
          "type": "address"
        },
        {
          "internalType": "uint256",
          "name": "tokenId",
          "type": "uint256"
        }
      ],
      "name": "transferFrom",
      "outputs": [],
      "stateMutability": "nonpayable",
      "type": "function"
    },
    {
      "inputs": [
        {
          "internalType": "address",
          "name": "newOwner",
          "type": "address"
        }
      ],
      "name": "transferOwnership",
      "outputs": [],
      "stateMutability": "nonpayable",
      "type": "function"
    }
  ],
  "bytecode": "0x60806040523480156200001157600080fd5b50336040518060400160405280600c81526020017f4441504550726f706572747900000000000000000000000000000000000000008152506040518060400160405280600681526020017f444150455f50000000000000000000000000000000000000000000000000000081525081600090816200009091906200047a565b508060019081620000a291906200047a565b505050600073ffffffffffffffffffffffffffffffffffffffff168173ffffffffffffffffffffffffffffffffffffffff16036200011a5760006040517f1e4fbdf7000000000000000000000000000000000000000000000000000000008152600401620001119190620005a6565b60405180910390fd5b6200012b816200013a60201b60201c565b506000600781905550620005c3565b6000600660009054906101000a900473ffffffffffffffffffffffffffffffffffffffff16905081600660006101000a81548173ffffffffffffffffffffffffffffffffffffffff021916908373ffffffffffffffffffffffffffffffffffffffff1602179055508173ffffffffffffffffffffffffffffffffffffffff168173ffffffffffffffffffffffffffffffffffffffff167f8be0079c531659141344cd1fd0a4f28419497f9722a3daafe3b4186f6b6457e060405160405180910390a35050565b600081519050919050565b7f4e487b7100000000000000000000000000000000000000000000000000000000600052604160045260246000fd5b7f4e487b7100000000000000000000000000000000000000000000000000000000600052602260045260246000fd5b600060028204905060018216806200028257607f821691505b6020821081036200029857620002976200023a565b5b50919050565b60008190508160005260206000209050919050565b60006020601f8301049050919050565b600082821b905092915050565b600060088302620003027fffffffffffffffffffffffffffffffffffffffffffffffffffffffffffffffff82620002c3565b6200030e8683620002c3565b95508019841693508086168417925050509392505050565b6000819050919050565b6000819050919050565b60006200035b620003556200034f8462000326565b62000330565b62000326565b9050919050565b6000819050919050565b62000377836200033a565b6200038f620003868262000362565b848454620002d0565b825550505050565b600090565b620003a662000397565b620003b38184846200036c565b505050565b5b81811015620003db57620003cf6000826200039c565b600181019050620003b9565b5050565b601f8211156200042a57620003f4816200029e565b620003ff84620002b3565b810160208510156200040f578190505b620004276200041e85620002b3565b830182620003b8565b50505b505050565b600082821c905092915050565b60006200044f600019846008026200042f565b1980831691505092915050565b60006200046a83836200043c565b9150826002028217905092915050565b620004858262000200565b67ffffffffffffffff811115620004a157620004a06200020b565b5b620004ad825462000269565b620004ba828285620003df565b600060209050601f831160018114620004f25760008415620004dd578287015190505b620004e985826200045c565b86555062000559565b601f19841662000502866200029e565b60005b828110156200052c5784890151825560018201915060208501945060208101905062000505565b868310156200054c578489015162000548601f8916826200043c565b8355505b6001600288020188555050505b505050505050565b600073ffffffffffffffffffffffffffffffffffffffff82169050919050565b60006200058e8262000561565b9050919050565b620005a08162000581565b82525050565b6000602082019050620005bd600083018462000595565b92915050565b61479180620005d36000396000f3fe60806040523480156200001157600080fd5b5060043610620001485760003560e01c806376dddf0c11620000bd578063b7b551ed116200007b578063b7b551ed14620003a5578063b88d4fde14620003db578063c87b56dd14620003fb578063e985e9c51462000431578063f2fde38b14620004675762000148565b806376dddf0c14620002e957806378a89567146200031f5780638da5cb5b146200034157806395d89b411462000363578063a22cb46514620003855762000148565b806323b872dd116200010b57806323b872dd146200023157806342842e0e14620002515780636352211e146200027157806370a0823114620002a7578063715018a614620002dd5762000148565b806301ffc9a7146200014d57806306fdde031462000183578063081812fc14620001a5578063095ea7b314620001db57806322831ca314620001fb575b600080fd5b6200016b600480360381019062000165919062001b2c565b62000487565b6040516200017a919062001b7b565b60405180910390f35b6200018d6200056d565b6040516200019c919062001c32565b60405180910390f35b620001c36004803603810190620001bd919062001c91565b62000607565b604051620001d2919062001d08565b60405180910390f35b620001f96004803603810190620001f3919062001d56565b62000627565b005b62000219600480360381019062000213919062001eee565b62000641565b60405162000228919062001f65565b60405180910390f35b6200024f600480360381019062000249919062001f82565b62000771565b005b6200026f600480360381019062000269919062001f82565b6200087d565b005b6200028f600480360381019062000289919062001c91565b6200089f565b6040516200029e919062001d08565b60405180910390f35b620002c56004803603810190620002bf919062001fde565b620008b3565b604051620002d4919062001f65565b60405180910390f35b620002e762000970565b005b62000307600480360381019062000301919062001c91565b62000988565b60405162000316919062001d08565b60405180910390f35b62000329620009c5565b60405162000338919062001f65565b60405180910390f35b6200034b620009cf565b6040516200035a919062001d08565b60405180910390f35b6200036d620009f9565b6040516200037c919062001c32565b60405180910390f35b620003a360048036038101906200039d919062002041565b62000a93565b005b620003c36004803603810190620003bd919062001c91565b62000aad565b604051620003d2919062001d08565b60405180910390f35b620003f96004803603810190620003f391906200213c565b62000ae0565b005b62000419600480360381019062000413919062001c91565b62000b0b565b60405162000428919062001c32565b60405180910390f35b6200044f6004803603810190620004499190620021cd565b62000ca2565b6040516200045e919062001b7b565b60405180910390f35b6200048560048036038101906200047f919062001fde565b62000d36565b005b60007f80ac58cd000000000000000000000000000000000000000000000000000000007bffffffffffffffffffffffffffffffffffffffffffffffffffffffff1916827bffffffffffffffffffffffffffffffffffffffffffffffffffffffff191614806200055357507f5b5e139f000000000000000000000000000000000000000000000000000000007bffffffffffffffffffffffffffffffffffffffffffffffffffffffff1916827bffffffffffffffffffffffffffffffffffffffffffffffffffffffff1916145b80620005665750620005658262000dc3565b5b9050919050565b6060600080546200057e9062002243565b80601f0160208091040260200160405190810160405280929190818152602001828054620005ac9062002243565b8015620005fd5780601f10620005d157610100808354040283529160200191620005fd565b820191906000526020600020905b815481529060010190602001808311620005df57829003601f168201915b5050505050905090565b6000620006148262000e2d565b50620006208262000eba565b9050919050565b6200063d82826200063762000ef7565b62000eff565b5050565b60006200064d62000f13565b600760008154809291906200066290620022a7565b9190505550600754905062000678338262000fa3565b826009600083815260200190815260200160002090816200069a9190620024c6565b506000813384604051620006ae9062001aad565b620006bc93929190620025ad565b604051809103906000f080158015620006d9573d6000803e3d6000fd5b509050806008600084815260200190815260200160002060006101000a81548173ffffffffffffffffffffffffffffffffffffffff021916908373ffffffffffffffffffffffffffffffffffffffff160217905550817f10362b7427788db8a722436bd6a559b7cf49fcd7ac952b07d1f12748489bb6cb858360405162000762929190620025ea565b60405180910390a25092915050565b600073ffffffffffffffffffffffffffffffffffffffff168273ffffffffffffffffffffffffffffffffffffffff1603620007e65760006040517f64a0ae92000000000000000000000000000000000000000000000000000000008152600401620007dd919062001d08565b60405180910390fd5b6000620007fe8383620007f862000ef7565b62000fc3565b90508373ffffffffffffffffffffffffffffffffffffffff168173ffffffffffffffffffffffffffffffffffffffff161462000877578382826040517f64283d7b0000000000000000000000000000000000000000000000000000000081526004016200086e939291906200261e565b60405180910390fd5b50505050565b6200089a8383836040518060200160405280600081525062000ae0565b505050565b6000620008ac8262000e2d565b9050919050565b60008073ffffffffffffffffffffffffffffffffffffffff168273ffffffffffffffffffffffffffffffffffffffff1603620009295760006040517f89c62b6400000000000000000000000000000000000000000000000000000000815260040162000920919062001d08565b60405180910390fd5b600360008373ffffffffffffffffffffffffffffffffffffffff1673ffffffffffffffffffffffffffffffffffffffff168152602001908152602001600020549050919050565b6200097a62000f13565b620009866000620011e6565b565b60006008600083815260200190815260200160002060009054906101000a900473ffffffffffffffffffffffffffffffffffffffff169050919050565b6000600754905090565b6000600660009054906101000a900473ffffffffffffffffffffffffffffffffffffffff16905090565b60606001805462000a0a9062002243565b80601f016020809104026020016040519081016040528092919081815260200182805462000a389062002243565b801562000a895780601f1062000a5d5761010080835404028352916020019162000a89565b820191906000526020600020905b81548152906001019060200180831162000a6b57829003601f168201915b5050505050905090565b62000aa962000aa162000ef7565b8383620012ac565b5050565b60086020528060005260406000206000915054906101000a900473ffffffffffffffffffffffffffffffffffffffff1681565b62000aed84848462000771565b62000b0562000afb62000ef7565b8585858562001420565b50505050565b6060600073ffffffffffffffffffffffffffffffffffffffff1662000b30836200089f565b73ffffffffffffffffffffffffffffffffffffffff160362000b89576040517f08c379a000000000000000000000000000000000000000000000000000000000815260040162000b8090620026d1565b60405180910390fd5b600060096000848152602001908152602001600020805462000bab9062002243565b80601f016020809104026020016040519081016040528092919081815260200182805462000bd99062002243565b801562000c2a5780601f1062000bfe5761010080835404028352916020019162000c2a565b820191906000526020600020905b81548152906001019060200180831162000c0c57829003601f168201915b50505050509050600081511162000c78576040517f08c379a000000000000000000000000000000000000000000000000000000000815260040162000c6f9062002769565b60405180910390fd5b8060405160200162000c8b91906200281d565b604051602081830303815290604052915050919050565b6000600560008473ffffffffffffffffffffffffffffffffffffffff1673ffffffffffffffffffffffffffffffffffffffff16815260200190815260200160002060008373ffffffffffffffffffffffffffffffffffffffff1673ffffffffffffffffffffffffffffffffffffffff16815260200190815260200160002060009054906101000a900460ff16905092915050565b62000d4062000f13565b600073ffffffffffffffffffffffffffffffffffffffff168173ffffffffffffffffffffffffffffffffffffffff160362000db55760006040517f1e4fbdf700000000000000000000000000000000000000000000000000000000815260040162000dac919062001d08565b60405180910390fd5b62000dc081620011e6565b50565b60007f01ffc9a7000000000000000000000000000000000000000000000000000000007bffffffffffffffffffffffffffffffffffffffffffffffffffffffff1916827bffffffffffffffffffffffffffffffffffffffffffffffffffffffff1916149050919050565b60008062000e3b83620015e0565b9050600073ffffffffffffffffffffffffffffffffffffffff168173ffffffffffffffffffffffffffffffffffffffff160362000eb157826040517f7e27328900000000000000000000000000000000000000000000000000000000815260040162000ea8919062001f65565b60405180910390fd5b80915050919050565b60006004600083815260200190815260200160002060009054906101000a900473ffffffffffffffffffffffffffffffffffffffff169050919050565b600033905090565b62000f0e83838360016200161d565b505050565b62000f1d62000ef7565b73ffffffffffffffffffffffffffffffffffffffff1662000f3d620009cf565b73ffffffffffffffffffffffffffffffffffffffff161462000fa15762000f6362000ef7565b6040517f118cdaa700000000000000000000000000000000000000000000000000000000815260040162000f98919062001d08565b60405180910390fd5b565b62000fbf828260405180602001604052806000815250620017ee565b5050565b60008062000fd184620015e0565b9050600073ffffffffffffffffffffffffffffffffffffffff168373ffffffffffffffffffffffffffffffffffffffff161462001016576200101581848662001818565b5b600073ffffffffffffffffffffffffffffffffffffffff168173ffffffffffffffffffffffffffffffffffffffff1614620010aa576200105b6000856000806200161d565b6001600360008373ffffffffffffffffffffffffffffffffffffffff1673ffffffffffffffffffffffffffffffffffffffff168152602001908152602001600020600082825403925050819055505b600073ffffffffffffffffffffffffffffffffffffffff168573ffffffffffffffffffffffffffffffffffffffff16146200112e576001600360008773ffffffffffffffffffffffffffffffffffffffff1673ffffffffffffffffffffffffffffffffffffffff168152602001908152602001600020600082825401925050819055505b846002600086815260200190815260200160002060006101000a81548173ffffffffffffffffffffffffffffffffffffffff021916908373ffffffffffffffffffffffffffffffffffffffff160217905550838573ffffffffffffffffffffffffffffffffffffffff168273ffffffffffffffffffffffffffffffffffffffff167fddf252ad1be2c89b69c2b068fc378daa952ba7f163c4a11628f55a4df523b3ef60405160405180910390a4809150509392505050565b6000600660009054906101000a900473ffffffffffffffffffffffffffffffffffffffff16905081600660006101000a81548173ffffffffffffffffffffffffffffffffffffffff021916908373ffffffffffffffffffffffffffffffffffffffff1602179055508173ffffffffffffffffffffffffffffffffffffffff168173ffffffffffffffffffffffffffffffffffffffff167f8be0079c531659141344cd1fd0a4f28419497f9722a3daafe3b4186f6b6457e060405160405180910390a35050565b600073ffffffffffffffffffffffffffffffffffffffff168273ffffffffffffffffffffffffffffffffffffffff16036200132057816040517f5b08ba1800000000000000000000000000000000000000000000000000000000815260040162001317919062001d08565b60405180910390fd5b80600560008573ffffffffffffffffffffffffffffffffffffffff1673ffffffffffffffffffffffffffffffffffffffff16815260200190815260200160002060008473ffffffffffffffffffffffffffffffffffffffff1673ffffffffffffffffffffffffffffffffffffffff16815260200190815260200160002060006101000a81548160ff0219169083151502179055508173ffffffffffffffffffffffffffffffffffffffff168373ffffffffffffffffffffffffffffffffffffffff167f17307eab39ab6107e8899845ad3d59bd9653f200f220920489ca2b5937696c318360405162001413919062001b7b565b60405180910390a3505050565b60008373ffffffffffffffffffffffffffffffffffffffff163b1115620015d9578273ffffffffffffffffffffffffffffffffffffffff1663150b7a02868685856040518563ffffffff1660e01b8152600401620014829493929190620028a0565b6020604051808303816000875af1925050508015620014c157506040513d601f19601f82011682018060405250810190620014be91906200290b565b60015b6200154b573d8060008114620014f4576040519150601f19603f3d011682016040523d82523d6000602084013e620014f9565b606091505b5060008151036200154357836040517f64a0ae920000000000000000000000000000000000000000000000000000000081526004016200153a919062001d08565b60405180910390fd5b805160208201fd5b63150b7a0260e01b7bffffffffffffffffffffffffffffffffffffffffffffffffffffffff1916817bffffffffffffffffffffffffffffffffffffffffffffffffffffffff191614620015d757836040517f64a0ae92000000000000000000000000000000000000000000000000000000008152600401620015ce919062001d08565b60405180910390fd5b505b5050505050565b60006002600083815260200190815260200160002060009054906101000a900473ffffffffffffffffffffffffffffffffffffffff169050919050565b8080620016575750600073ffffffffffffffffffffffffffffffffffffffff168273ffffffffffffffffffffffffffffffffffffffff1614155b15620017965760006200166a8462000e2d565b9050600073ffffffffffffffffffffffffffffffffffffffff168373ffffffffffffffffffffffffffffffffffffffff1614158015620016d657508273ffffffffffffffffffffffffffffffffffffffff168173ffffffffffffffffffffffffffffffffffffffff1614155b8015620016ec5750620016ea818462000ca2565b155b156200173157826040517fa9fbf51f00000000000000000000000000000000000000000000000000000000815260040162001728919062001d08565b60405180910390fd5b81156200179457838573ffffffffffffffffffffffffffffffffffffffff168273ffffffffffffffffffffffffffffffffffffffff167f8c5be1e5ebec7d5bd14f71427d1e84f3dd0314c0f7b2291e5b200ac8c7c3b92560405160405180910390a45b505b836004600085815260200190815260200160002060006101000a81548173ffffffffffffffffffffffffffffffffffffffff021916908373ffffffffffffffffffffffffffffffffffffffff16021790555050505050565b620017fa8383620018e4565b620018136200180862000ef7565b600085858562001420565b505050565b62001825838383620019e5565b620018df57600073ffffffffffffffffffffffffffffffffffffffff168373ffffffffffffffffffffffffffffffffffffffff16036200189e57806040517f7e27328900000000000000000000000000000000000000000000000000000000815260040162001895919062001f65565b60405180910390fd5b81816040517f177e802f000000000000000000000000000000000000000000000000000000008152600401620018d69291906200293d565b60405180910390fd5b505050565b600073ffffffffffffffffffffffffffffffffffffffff168273ffffffffffffffffffffffffffffffffffffffff1603620019595760006040517f64a0ae9200000000000000000000000000000000000000000000000000000000815260040162001950919062001d08565b60405180910390fd5b6000620019698383600062000fc3565b9050600073ffffffffffffffffffffffffffffffffffffffff168173ffffffffffffffffffffffffffffffffffffffff1614620019e05760006040517f73c6ac6e000000000000000000000000000000000000000000000000000000008152600401620019d7919062001d08565b60405180910390fd5b505050565b60008073ffffffffffffffffffffffffffffffffffffffff168373ffffffffffffffffffffffffffffffffffffffff161415801562001aa457508273ffffffffffffffffffffffffffffffffffffffff168473ffffffffffffffffffffffffffffffffffffffff16148062001a62575062001a61848462000ca2565b5b8062001aa357508273ffffffffffffffffffffffffffffffffffffffff1662001a8b8362000eba565b73ffffffffffffffffffffffffffffffffffffffff16145b5b90509392505050565b611df1806200296b83390190565b6000604051905090565b600080fd5b600080fd5b60007fffffffff0000000000000000000000000000000000000000000000000000000082169050919050565b62001b068162001acf565b811462001b1257600080fd5b50565b60008135905062001b268162001afb565b92915050565b60006020828403121562001b455762001b4462001ac5565b5b600062001b558482850162001b15565b91505092915050565b60008115159050919050565b62001b758162001b5e565b82525050565b600060208201905062001b92600083018462001b6a565b92915050565b600081519050919050565b600082825260208201905092915050565b60005b8381101562001bd457808201518184015260208101905062001bb7565b60008484015250505050565b6000601f19601f8301169050919050565b600062001bfe8262001b98565b62001c0a818562001ba3565b935062001c1c81856020860162001bb4565b62001c278162001be0565b840191505092915050565b6000602082019050818103600083015262001c4e818462001bf1565b905092915050565b6000819050919050565b62001c6b8162001c56565b811462001c7757600080fd5b50565b60008135905062001c8b8162001c60565b92915050565b60006020828403121562001caa5762001ca962001ac5565b5b600062001cba8482850162001c7a565b91505092915050565b600073ffffffffffffffffffffffffffffffffffffffff82169050919050565b600062001cf08262001cc3565b9050919050565b62001d028162001ce3565b82525050565b600060208201905062001d1f600083018462001cf7565b92915050565b62001d308162001ce3565b811462001d3c57600080fd5b50565b60008135905062001d508162001d25565b92915050565b6000806040838503121562001d705762001d6f62001ac5565b5b600062001d808582860162001d3f565b925050602062001d938582860162001c7a565b9150509250929050565b600080fd5b600080fd5b7f4e487b7100000000000000000000000000000000000000000000000000000000600052604160045260246000fd5b62001de18262001be0565b810181811067ffffffffffffffff8211171562001e035762001e0262001da7565b5b80604052505050565b600062001e1862001abb565b905062001e26828262001dd6565b919050565b600067ffffffffffffffff82111562001e495762001e4862001da7565b5b62001e548262001be0565b9050602081019050919050565b82818337600083830152505050565b600062001e8762001e818462001e2b565b62001e0c565b90508281526020810184848401111562001ea65762001ea562001da2565b5b62001eb384828562001e61565b509392505050565b600082601f83011262001ed35762001ed262001d9d565b5b813562001ee584826020860162001e70565b91505092915050565b6000806040838503121562001f085762001f0762001ac5565b5b600083013567ffffffffffffffff81111562001f295762001f2862001aca565b5b62001f378582860162001ebb565b925050602062001f4a8582860162001c7a565b9150509250929050565b62001f5f8162001c56565b82525050565b600060208201905062001f7c600083018462001f54565b92915050565b60008060006060848603121562001f9e5762001f9d62001ac5565b5b600062001fae8682870162001d3f565b935050602062001fc18682870162001d3f565b925050604062001fd48682870162001c7a565b9150509250925092565b60006020828403121562001ff75762001ff662001ac5565b5b6000620020078482850162001d3f565b91505092915050565b6200201b8162001b5e565b81146200202757600080fd5b50565b6000813590506200203b8162002010565b92915050565b600080604083850312156200205b576200205a62001ac5565b5b60006200206b8582860162001d3f565b92505060206200207e858286016200202a565b9150509250929050565b600067ffffffffffffffff821115620020a657620020a562001da7565b5b620020b18262001be0565b9050602081019050919050565b6000620020d5620020cf8462002088565b62001e0c565b905082815260208101848484011115620020f457620020f362001da2565b5b6200210184828562001e61565b509392505050565b600082601f83011262002121576200212062001d9d565b5b813562002133848260208601620020be565b91505092915050565b6000806000806080858703121562002159576200215862001ac5565b5b6000620021698782880162001d3f565b94505060206200217c8782880162001d3f565b93505060406200218f8782880162001c7a565b925050606085013567ffffffffffffffff811115620021b357620021b262001aca565b5b620021c18782880162002109565b91505092959194509250565b60008060408385031215620021e757620021e662001ac5565b5b6000620021f78582860162001d3f565b92505060206200220a8582860162001d3f565b9150509250929050565b7f4e487b7100000000000000000000000000000000000000000000000000000000600052602260045260246000fd5b600060028204905060018216806200225c57607f821691505b60208210810362002272576200227162002214565b5b50919050565b7f4e487b7100000000000000000000000000000000000000000000000000000000600052601160045260246000fd5b6000620022b48262001c56565b91507fffffffffffffffffffffffffffffffffffffffffffffffffffffffffffffffff8203620022e957620022e862002278565b5b600182019050919050565b60008190508160005260206000209050919050565b60006020601f8301049050919050565b600082821b905092915050565b600060088302620023587fffffffffffffffffffffffffffffffffffffffffffffffffffffffffffffffff8262002319565b62002364868362002319565b95508019841693508086168417925050509392505050565b6000819050919050565b6000620023a7620023a16200239b8462001c56565b6200237c565b62001c56565b9050919050565b6000819050919050565b620023c38362002386565b620023db620023d282620023ae565b84845462002326565b825550505050565b600090565b620023f2620023e3565b620023ff818484620023b8565b505050565b5b8181101562002427576200241b600082620023e8565b60018101905062002405565b5050565b601f82111562002476576200244081620022f4565b6200244b8462002309565b810160208510156200245b578190505b620024736200246a8562002309565b83018262002404565b50505b505050565b600082821c905092915050565b60006200249b600019846008026200247b565b1980831691505092915050565b6000620024b6838362002488565b9150826002028217905092915050565b620024d18262001b98565b67ffffffffffffffff811115620024ed57620024ec62001da7565b5b620024f9825462002243565b620025068282856200242b565b600060209050601f8311600181146200253e576000841562002529578287015190505b620025358582620024a8565b865550620025a5565b601f1984166200254e86620022f4565b60005b82811015620025785784890151825560018201915060208501945060208101905062002551565b8683101562002598578489015162002594601f89168262002488565b8355505b6001600288020188555050505b505050505050565b6000606082019050620025c4600083018662001f54565b620025d3602083018562001cf7565b620025e2604083018462001f54565b949350505050565b6000604082019050818103600083015262002606818562001bf1565b905062002617602083018462001cf7565b9392505050565b600060608201905062002635600083018662001cf7565b62002644602083018562001f54565b62002653604083018462001cf7565b949350505050565b7f4552433732314d657461646174613a2055524920717565727920666f72206e6f60008201527f6e6578697374656e7420746f6b656e0000000000000000000000000000000000602082015250565b6000620026b9602f8362001ba3565b9150620026c6826200265b565b604082019050919050565b60006020820190508181036000830152620026ec81620026aa565b9050919050565b7f4552433732314d657461646174613a20495046532068617368206e6f7420736560008201527f7420666f7220746f6b656e000000000000000000000000000000000000000000602082015250565b600062002751602b8362001ba3565b91506200275e82620026f3565b604082019050919050565b60006020820190508181036000830152620027848162002742565b9050919050565b600081905092915050565b7f697066733a2f2f00000000000000000000000000000000000000000000000000600082015250565b6000620027ce6007836200278b565b9150620027db8262002796565b600782019050919050565b6000620027f38262001b98565b620027ff81856200278b565b93506200281181856020860162001bb4565b80840191505092915050565b60006200282a82620027bf565b9150620028388284620027e6565b915081905092915050565b600081519050919050565b600082825260208201905092915050565b60006200286c8262002843565b6200287881856200284e565b93506200288a81856020860162001bb4565b620028958162001be0565b840191505092915050565b6000608082019050620028b7600083018762001cf7565b620028c6602083018662001cf7565b620028d5604083018562001f54565b8181036060830152620028e981846200285f565b905095945050505050565b600081519050620029058162001afb565b92915050565b60006020828403121562002924576200292362001ac5565b5b60006200293484828501620028f4565b91505092915050565b600060408201905062002954600083018562001cf7565b62002963602083018462001f54565b939250505056fe60806040523480156200001157600080fd5b5060405162001df138038062001df18339818101604052810190620000379190620006c3565b62000048836200010d60201b60201c565b6040516020016200005a919062000838565b6040516020818303038152906040526200007a846200010d60201b60201c565b6040516020016200008c9190620008bb565b6040516020818303038152906040528160039081620000ac919062000b46565b508060049081620000be919062000b46565b505050826005819055506200010482620000dd620001ec60201b60201c565b600a620000eb919062000dbd565b83620000f8919062000e0e565b620001f560201b60201c565b50505062000f5c565b60606000600162000124846200028260201b60201c565b01905060008167ffffffffffffffff811115620001465762000145620008e1565b5b6040519080825280601f01601f191660200182016040528015620001795781602001600182028036833780820191505090505b509050600082602083010190505b600115620001e1578080600190039150507f3031323334353637383961626364656600000000000000000000000000000000600a86061a8153600a8581620001d457620001d362000e59565b5b0494506000850362000187575b819350505050919050565b60006012905090565b600073ffffffffffffffffffffffffffffffffffffffff168273ffffffffffffffffffffffffffffffffffffffff16036200026a5760006040517fec442f0500000000000000000000000000000000000000000000000000000000815260040162000261919062000e99565b60405180910390fd5b6200027e60008383620003ee60201b60201c565b5050565b600080600090507a184f03e93ff9f4daa797ed6e38ed64bf6a1f0100000000000000008310620002e4577a184f03e93ff9f4daa797ed6e38ed64bf6a1f0100000000000000008381620002da57620002d962000e59565b5b0492506040810190505b6d04ee2d6d415b85acef8100000000831062000325576d04ee2d6d415b85acef810000000083816200031b576200031a62000e59565b5b0492506020810190505b662386f26fc1000083106200035857662386f26fc1000083816200034e576200034d62000e59565b5b0492506010810190505b6305f5e100831062000385576305f5e10083816200037b576200037a62000e59565b5b0492506008810190505b6127108310620003ae576127108381620003a457620003a362000e59565b5b0492506004810190505b60648310620003d55760648381620003cb57620003ca62000e59565b5b0492506002810190505b600a8310620003e5576001810190505b80915050919050565b600073ffffffffffffffffffffffffffffffffffffffff168373ffffffffffffffffffffffffffffffffffffffff16036200044457806002600082825462000437919062000eb6565b925050819055506200051a565b60008060008573ffffffffffffffffffffffffffffffffffffffff1673ffffffffffffffffffffffffffffffffffffffff16815260200190815260200160002054905081811015620004d3578381836040517fe450d38c000000000000000000000000000000000000000000000000000000008152600401620004ca9392919062000f02565b60405180910390fd5b8181036000808673ffffffffffffffffffffffffffffffffffffffff1673ffffffffffffffffffffffffffffffffffffffff16815260200190815260200160002081905550505b600073ffffffffffffffffffffffffffffffffffffffff168273ffffffffffffffffffffffffffffffffffffffff1603620005655780600260008282540392505081905550620005b2565b806000808473ffffffffffffffffffffffffffffffffffffffff1673ffffffffffffffffffffffffffffffffffffffff168152602001908152602001600020600082825401925050819055505b8173ffffffffffffffffffffffffffffffffffffffff168373ffffffffffffffffffffffffffffffffffffffff167fddf252ad1be2c89b69c2b068fc378daa952ba7f163c4a11628f55a4df523b3ef8360405162000611919062000f3f565b60405180910390a3505050565b600080fd5b6000819050919050565b620006388162000623565b81146200064457600080fd5b50565b60008151905062000658816200062d565b92915050565b600073ffffffffffffffffffffffffffffffffffffffff82169050919050565b60006200068b826200065e565b9050919050565b6200069d816200067e565b8114620006a957600080fd5b50565b600081519050620006bd8162000692565b92915050565b600080600060608486031215620006df57620006de6200061e565b5b6000620006ef8682870162000647565b93505060206200070286828701620006ac565b9250506040620007158682870162000647565b9150509250925092565b600081905092915050565b7f444150452050726f706572747920230000000000000000000000000000000000600082015250565b600062000762600f836200071f565b91506200076f826200072a565b600f82019050919050565b600081519050919050565b60005b83811015620007a557808201518184015260208101905062000788565b60008484015250505050565b6000620007be826200077a565b620007ca81856200071f565b9350620007dc81856020860162000785565b80840191505092915050565b7f2053686172657300000000000000000000000000000000000000000000000000600082015250565b6000620008206007836200071f565b91506200082d82620007e8565b600782019050919050565b6000620008458262000753565b9150620008538284620007b1565b9150620008608262000811565b915081905092915050565b7f444150455f530000000000000000000000000000000000000000000000000000600082015250565b6000620008a36006836200071f565b9150620008b0826200086b565b600682019050919050565b6000620008c88262000894565b9150620008d68284620007b1565b915081905092915050565b7f4e487b7100000000000000000000000000000000000000000000000000000000600052604160045260246000fd5b7f4e487b7100000000000000000000000000000000000000000000000000000000600052602260045260246000fd5b600060028204905060018216806200095857607f821691505b6020821081036200096e576200096d62000910565b5b50919050565b60008190508160005260206000209050919050565b60006020601f8301049050919050565b600082821b905092915050565b600060088302620009d87fffffffffffffffffffffffffffffffffffffffffffffffffffffffffffffffff8262000999565b620009e4868362000999565b95508019841693508086168417925050509392505050565b6000819050919050565b600062000a2762000a2162000a1b8462000623565b620009fc565b62000623565b9050919050565b6000819050919050565b62000a438362000a06565b62000a5b62000a528262000a2e565b848454620009a6565b825550505050565b600090565b62000a7262000a63565b62000a7f81848462000a38565b505050565b5b8181101562000aa75762000a9b60008262000a68565b60018101905062000a85565b5050565b601f82111562000af65762000ac08162000974565b62000acb8462000989565b8101602085101562000adb578190505b62000af362000aea8562000989565b83018262000a84565b50505b505050565b600082821c905092915050565b600062000b1b6000198460080262000afb565b1980831691505092915050565b600062000b36838362000b08565b9150826002028217905092915050565b62000b51826200077a565b67ffffffffffffffff81111562000b6d5762000b6c620008e1565b5b62000b7982546200093f565b62000b8682828562000aab565b600060209050601f83116001811462000bbe576000841562000ba9578287015190505b62000bb5858262000b28565b86555062000c25565b601f19841662000bce8662000974565b60005b8281101562000bf85784890151825560018201915060208501945060208101905062000bd1565b8683101562000c18578489015162000c14601f89168262000b08565b8355505b6001600288020188555050505b505050505050565b7f4e487b7100000000000000000000000000000000000000000000000000000000600052601160045260246000fd5b60008160011c9050919050565b6000808291508390505b600185111562000cbb5780860481111562000c935762000c9262000c2d565b5b600185161562000ca35780820291505b808102905062000cb38562000c5c565b945062000c73565b94509492505050565b60008262000cd6576001905062000da9565b8162000ce6576000905062000da9565b816001811462000cff576002811462000d0a5762000d40565b600191505062000da9565b60ff84111562000d1f5762000d1e62000c2d565b5b8360020a91508482111562000d395762000d3862000c2d565b5b5062000da9565b5060208310610133831016604e8410600b841016171562000d7a5782820a90508381111562000d745762000d7362000c2d565b5b62000da9565b62000d89848484600162000c69565b9250905081840481111562000da35762000da262000c2d565b5b81810290505b9392505050565b600060ff82169050919050565b600062000dca8262000623565b915062000dd78362000db0565b925062000e067fffffffffffffffffffffffffffffffffffffffffffffffffffffffffffffffff848462000cc4565b905092915050565b600062000e1b8262000623565b915062000e288362000623565b925082820262000e388162000623565b9150828204841483151762000e525762000e5162000c2d565b5b5092915050565b7f4e487b7100000000000000000000000000000000000000000000000000000000600052601260045260246000fd5b62000e93816200067e565b82525050565b600060208201905062000eb0600083018462000e88565b92915050565b600062000ec38262000623565b915062000ed08362000623565b925082820190508082111562000eeb5762000eea62000c2d565b5b92915050565b62000efc8162000623565b82525050565b600060608201905062000f19600083018662000e88565b62000f28602083018562000ef1565b62000f37604083018462000ef1565b949350505050565b600060208201905062000f56600083018462000ef1565b92915050565b610e858062000f6c6000396000f3fe608060405234801561001057600080fd5b506004361061009e5760003560e01c806370a082311161006657806370a082311461015d57806395d89b411461018d578063a51689e9146101ab578063a9059cbb146101c9578063dd62ed3e146101f95761009e565b806306fdde03146100a3578063095ea7b3146100c157806318160ddd146100f157806323b872dd1461010f578063313ce5671461013f575b600080fd5b6100ab610229565b6040516100b89190610ad9565b60405180910390f35b6100db60048036038101906100d69190610b94565b6102bb565b6040516100e89190610bef565b60405180910390f35b6100f96102de565b6040516101069190610c19565b60405180910390f35b61012960048036038101906101249190610c34565b6102e8565b6040516101369190610bef565b60405180910390f35b610147610317565b6040516101549190610ca3565b60405180910390f35b61017760048036038101906101729190610cbe565b610320565b6040516101849190610c19565b60405180910390f35b610195610368565b6040516101a29190610ad9565b60405180910390f35b6101b36103fa565b6040516101c09190610c19565b60405180910390f35b6101e360048036038101906101de9190610b94565b610400565b6040516101f09190610bef565b60405180910390f35b610213600480360381019061020e9190610ceb565b610423565b6040516102209190610c19565b60405180910390f35b60606003805461023890610d5a565b80601f016020809104026020016040519081016040528092919081815260200182805461026490610d5a565b80156102b15780601f10610286576101008083540402835291602001916102b1565b820191906000526020600020905b81548152906001019060200180831161029457829003601f168201915b5050505050905090565b6000806102c66104aa565b90506102d38185856104b2565b600191505092915050565b6000600254905090565b6000806102f36104aa565b90506103008582856104c4565b61030b858585610559565b60019150509392505050565b60006012905090565b60008060008373ffffffffffffffffffffffffffffffffffffffff1673ffffffffffffffffffffffffffffffffffffffff168152602001908152602001600020549050919050565b60606004805461037790610d5a565b80601f01602080910402602001604051908101604052809291908181526020018280546103a390610d5a565b80156103f05780601f106103c5576101008083540402835291602001916103f0565b820191906000526020600020905b8154815290600101906020018083116103d357829003601f168201915b5050505050905090565b60055481565b60008061040b6104aa565b9050610418818585610559565b600191505092915050565b6000600160008473ffffffffffffffffffffffffffffffffffffffff1673ffffffffffffffffffffffffffffffffffffffff16815260200190815260200160002060008373ffffffffffffffffffffffffffffffffffffffff1673ffffffffffffffffffffffffffffffffffffffff16815260200190815260200160002054905092915050565b600033905090565b6104bf838383600161064d565b505050565b60006104d08484610423565b90507fffffffffffffffffffffffffffffffffffffffffffffffffffffffffffffffff8110156105535781811015610543578281836040517ffb8f41b200000000000000000000000000000000000000000000000000000000815260040161053a93929190610d9a565b60405180910390fd5b6105528484848403600061064d565b5b50505050565b600073ffffffffffffffffffffffffffffffffffffffff168373ffffffffffffffffffffffffffffffffffffffff16036105cb5760006040517f96c6fd1e0000000000000000000000000000000000000000000000000000000081526004016105c29190610dd1565b60405180910390fd5b600073ffffffffffffffffffffffffffffffffffffffff168273ffffffffffffffffffffffffffffffffffffffff160361063d5760006040517fec442f050000000000000000000000000000000000000000000000000000000081526004016106349190610dd1565b60405180910390fd5b610648838383610824565b505050565b600073ffffffffffffffffffffffffffffffffffffffff168473ffffffffffffffffffffffffffffffffffffffff16036106bf5760006040517fe602df050000000000000000000000000000000000000000000000000000000081526004016106b69190610dd1565b60405180910390fd5b600073ffffffffffffffffffffffffffffffffffffffff168373ffffffffffffffffffffffffffffffffffffffff16036107315760006040517f94280d620000000000000000000000000000000000000000000000000000000081526004016107289190610dd1565b60405180910390fd5b81600160008673ffffffffffffffffffffffffffffffffffffffff1673ffffffffffffffffffffffffffffffffffffffff16815260200190815260200160002060008573ffffffffffffffffffffffffffffffffffffffff1673ffffffffffffffffffffffffffffffffffffffff16815260200190815260200160002081905550801561081e578273ffffffffffffffffffffffffffffffffffffffff168473ffffffffffffffffffffffffffffffffffffffff167f8c5be1e5ebec7d5bd14f71427d1e84f3dd0314c0f7b2291e5b200ac8c7c3b925846040516108159190610c19565b60405180910390a35b50505050565b600073ffffffffffffffffffffffffffffffffffffffff168373ffffffffffffffffffffffffffffffffffffffff160361087657806002600082825461086a9190610e1b565b92505081905550610949565b60008060008573ffffffffffffffffffffffffffffffffffffffff1673ffffffffffffffffffffffffffffffffffffffff16815260200190815260200160002054905081811015610902578381836040517fe450d38c0000000000000000000000000000000000000000000000000000000081526004016108f993929190610d9a565b60405180910390fd5b8181036000808673ffffffffffffffffffffffffffffffffffffffff1673ffffffffffffffffffffffffffffffffffffffff16815260200190815260200160002081905550505b600073ffffffffffffffffffffffffffffffffffffffff168273ffffffffffffffffffffffffffffffffffffffff160361099257806002600082825403925050819055506109df565b806000808473ffffffffffffffffffffffffffffffffffffffff1673ffffffffffffffffffffffffffffffffffffffff168152602001908152602001600020600082825401925050819055505b8173ffffffffffffffffffffffffffffffffffffffff168373ffffffffffffffffffffffffffffffffffffffff167fddf252ad1be2c89b69c2b068fc378daa952ba7f163c4a11628f55a4df523b3ef83604051610a3c9190610c19565b60405180910390a3505050565b600081519050919050565b600082825260208201905092915050565b60005b83811015610a83578082015181840152602081019050610a68565b60008484015250505050565b6000601f19601f8301169050919050565b6000610aab82610a49565b610ab58185610a54565b9350610ac5818560208601610a65565b610ace81610a8f565b840191505092915050565b60006020820190508181036000830152610af38184610aa0565b905092915050565b600080fd5b600073ffffffffffffffffffffffffffffffffffffffff82169050919050565b6000610b2b82610b00565b9050919050565b610b3b81610b20565b8114610b4657600080fd5b50565b600081359050610b5881610b32565b92915050565b6000819050919050565b610b7181610b5e565b8114610b7c57600080fd5b50565b600081359050610b8e81610b68565b92915050565b60008060408385031215610bab57610baa610afb565b5b6000610bb985828601610b49565b9250506020610bca85828601610b7f565b9150509250929050565b60008115159050919050565b610be981610bd4565b82525050565b6000602082019050610c046000830184610be0565b92915050565b610c1381610b5e565b82525050565b6000602082019050610c2e6000830184610c0a565b92915050565b600080600060608486031215610c4d57610c4c610afb565b5b6000610c5b86828701610b49565b9350506020610c6c86828701610b49565b9250506040610c7d86828701610b7f565b9150509250925092565b600060ff82169050919050565b610c9d81610c87565b82525050565b6000602082019050610cb86000830184610c94565b92915050565b600060208284031215610cd457610cd3610afb565b5b6000610ce284828501610b49565b91505092915050565b60008060408385031215610d0257610d01610afb565b5b6000610d1085828601610b49565b9250506020610d2185828601610b49565b9150509250929050565b7f4e487b7100000000000000000000000000000000000000000000000000000000600052602260045260246000fd5b60006002820490506001821680610d7257607f821691505b602082108103610d8557610d84610d2b565b5b50919050565b610d9481610b20565b82525050565b6000606082019050610daf6000830186610d8b565b610dbc6020830185610c0a565b610dc96040830184610c0a565b949350505050565b6000602082019050610de66000830184610d8b565b92915050565b7f4e487b7100000000000000000000000000000000000000000000000000000000600052601160045260246000fd5b6000610e2682610b5e565b9150610e3183610b5e565b9250828201905080821115610e4957610e48610dec565b5b9291505056fea2646970667358221220edfedd555f0f31efe5d45f7e6413086a94954c794cf5cc8616ca26b22de0539764736f6c63430008140033a264697066735822122097764ea2eb550e7c1e6f50faf244f6c173ca9907d63e65007fc750f2dc4ae46f64736f6c63430008140033",
  "linkReferences": {},
  "deployedLinkReferences": {}
}