{
  "_format": "hh-sol-artifact-1",
  "contractName": "RealEstate",
  "sourceName": "contracts/RealEstate.sol",
  "abi": [
    {
      "inputs": [],
      "stateMutability": "nonpayable",
      "type": "constructor"
    },
    {
      "anonymous": false,
      "inputs": [
        {
          "indexed": true,
          "internalType": "address",
          "name": "user",
          "type": "address"
        },
        {
          "indexed": false,
          "internalType": "bool",
          "name": "status",
          "type": "bool"
        }
      ],
      "name": "IdentityVerified",
      "type": "event"
    },
    {
      "anonymous": false,
      "inputs": [
        {
          "indexed": true,
          "internalType": "uint256",
          "name": "propertyId",
          "type": "uint256"
        },
        {
          "indexed": true,
          "internalType": "address",
          "name": "buyer",
          "type": "address"
        }
      ],
      "name": "OfferInitiated",
      "type": "event"
    },
    {
      "anonymous": false,
      "inputs": [
        {
          "indexed": true,
          "internalType": "uint256",
          "name": "propertyId",
          "type": "uint256"
        },
        {
          "indexed": true,
          "internalType": "address",
          "name": "buyer",
          "type": "address"
        },
        {
          "indexed": false,
          "internalType": "uint256",
          "name": "amount",
          "type": "uint256"
        }
      ],
      "name": "PaymentDeposited",
      "type": "event"
    },
    {
      "anonymous": false,
      "inputs": [
        {
          "indexed": true,
          "internalType": "uint256",
          "name": "id",
          "type": "uint256"
        },
        {
          "indexed": true,
          "internalType": "address",
          "name": "seller",
          "type": "address"
        },
        {
          "indexed": false,
          "internalType": "string",
          "name": "location",
          "type": "string"
        },
        {
          "indexed": false,
          "internalType": "uint256",
          "name": "price",
          "type": "uint256"
        }
      ],
      "name": "PropertyListed",
      "type": "event"
    },
    {
      "anonymous": false,
      "inputs": [
        {
          "indexed": true,
          "internalType": "uint256",
          "name": "propertyId",
          "type": "uint256"
        },
        {
          "indexed": true,
          "internalType": "address",
          "name": "seller",
          "type": "address"
        },
        {
          "indexed": true,
          "internalType": "address",
          "name": "buyer",
          "type": "address"
        }
      ],
      "name": "SaleFinalized",
      "type": "event"
    },
    {
      "inputs": [
        {
          "internalType": "uint256",
          "name": "propertyId",
          "type": "uint256"
        }
      ],
      "name": "delistProperty",
      "outputs": [],
      "stateMutability": "nonpayable",
      "type": "function"
    },
    {
      "inputs": [
        {
          "internalType": "uint256",
          "name": "propertyId",
          "type": "uint256"
        }
      ],
      "name": "depositPayment",
      "outputs": [],
      "stateMutability": "payable",
      "type": "function"
    },
    {
      "inputs": [
        {
          "internalType": "uint256",
          "name": "",
          "type": "uint256"
        }
      ],
      "name": "escrow",
      "outputs": [
        {
          "internalType": "uint256",
          "name": "",
          "type": "uint256"
        }
      ],
      "stateMutability": "view",
      "type": "function"
    },
    {
      "inputs": [
        {
          "internalType": "uint256",
          "name": "propertyId",
          "type": "uint256"
        }
      ],
      "name": "finalizeSale",
      "outputs": [],
      "stateMutability": "nonpayable",
      "type": "function"
    },
    {
      "inputs": [
        {
          "internalType": "uint256",
          "name": "propertyId",
          "type": "uint256"
        }
      ],
      "name": "initiateOffer",
      "outputs": [],
      "stateMutability": "nonpayable",
      "type": "function"
    },
    {
      "inputs": [
        {
          "internalType": "address",
          "name": "",
          "type": "address"
        }
      ],
      "name": "isVerified",
      "outputs": [
        {
          "internalType": "bool",
          "name": "",
          "type": "bool"
        }
      ],
      "stateMutability": "view",
      "type": "function"
    },
    {
      "inputs": [],
      "name": "kycProvider",
      "outputs": [
        {
          "internalType": "address",
          "name": "",
          "type": "address"
        }
      ],
      "stateMutability": "view",
      "type": "function"
    },
    {
      "inputs": [
        {
          "internalType": "string",
          "name": "location",
          "type": "string"
        },
        {
          "internalType": "string",
          "name": "description",
          "type": "string"
        },
        {
          "internalType": "uint256",
          "name": "price",
          "type": "uint256"
        }
      ],
      "name": "listProperty",
      "outputs": [],
      "stateMutability": "nonpayable",
      "type": "function"
    },
    {
      "inputs": [
        {
          "internalType": "uint256",
          "name": "",
          "type": "uint256"
        }
      ],
      "name": "properties",
      "outputs": [
        {
          "internalType": "uint256",
          "name": "id",
          "type": "uint256"
        },
        {
          "internalType": "address",
          "name": "seller",
          "type": "address"
        },
        {
          "internalType": "address",
          "name": "buyer",
          "type": "address"
        },
        {
          "internalType": "enum RealEstate.Status",
          "name": "status",
          "type": "uint8"
        },
        {
          "internalType": "string",
          "name": "location",
          "type": "string"
        },
        {
          "internalType": "string",
          "name": "description",
          "type": "string"
        },
        {
          "internalType": "uint256",
          "name": "price",
          "type": "uint256"
        }
      ],
      "stateMutability": "view",
      "type": "function"
    },
    {
      "inputs": [],
      "name": "propertyCounter",
      "outputs": [
        {
          "internalType": "uint256",
          "name": "",
          "type": "uint256"
        }
      ],
      "stateMutability": "view",
      "type": "function"
    },
    {
      "inputs": [
        {
          "internalType": "address",
          "name": "_newKycProvider",
          "type": "address"
        }
      ],
      "name": "setKycProvider",
      "outputs": [],
      "stateMutability": "nonpayable",
      "type": "function"
    },
    {
      "inputs": [
        {
          "internalType": "address",
          "name": "user",
          "type": "address"
        }
      ],
      "name": "unverifyIdentity",
      "outputs": [],
      "stateMutability": "nonpayable",
      "type": "function"
    },
    {
      "inputs": [
        {
          "internalType": "address",
          "name": "user",
          "type": "address"
        }
      ],
      "name": "verifyIdentity",
      "outputs": [],
      "stateMutability": "nonpayable",
      "type": "function"
    },
    {
      "inputs": [],
      "name": "withdraw",
      "outputs": [],
      "stateMutability": "nonpayable",
      "type": "function"
    },
    {
      "stateMutability": "payable",
      "type": "receive"
    }
  ],
  "bytecode": "0x608060405234801561001057600080fd5b5033600460006101000a81548173ffffffffffffffffffffffffffffffffffffffff021916908373ffffffffffffffffffffffffffffffffffffffff160217905550612abd806100616000396000f3fe6080604052600436106100e15760003560e01c8063b5b90fd91161007f578063d090e47e11610059578063d090e47e1461027e578063d68ff191146102a9578063df0795aa146102e6578063f7b108081461030f576100e8565b8063b5b90fd9146101ef578063b9209e3314610218578063c5bdbdd614610255576100e8565b80634cd378bc116100bb5780634cd378bc146101565780636b749c471461017f578063a26c786f1461019b578063aa929380146101c6576100e8565b80631cc2ea7a146100ed57806321a29a41146101165780633ccfd60b1461013f576100e8565b366100e857005b600080fd5b3480156100f957600080fd5b50610114600480360381019061010f919061189c565b610352565b005b34801561012257600080fd5b5061013d6004803603810190610138919061189c565b6104eb565b005b34801561014b57600080fd5b50610154610797565b005b34801561016257600080fd5b5061017d60048036038101906101789190611a0f565b610941565b005b6101996004803603810190610194919061189c565b610c09565b005b3480156101a757600080fd5b506101b0610e22565b6040516101bd9190611adb565b60405180910390f35b3480156101d257600080fd5b506101ed60048036038101906101e8919061189c565b610e48565b005b3480156101fb57600080fd5b5061021660048036038101906102119190611b22565b6111e0565b005b34801561022457600080fd5b5061023f600480360381019061023a9190611b22565b611389565b60405161024c9190611b6a565b60405180910390f35b34801561026157600080fd5b5061027c60048036038101906102779190611b22565b6113a9565b005b34801561028a57600080fd5b50610293611552565b6040516102a09190611b94565b60405180910390f35b3480156102b557600080fd5b506102d060048036038101906102cb919061189c565b611558565b6040516102dd9190611b94565b60405180910390f35b3480156102f257600080fd5b5061030d60048036038101906103089190611b22565b611570565b005b34801561031b57600080fd5b506103366004803603810190610331919061189c565b6116b3565b6040516103499796959493929190611ca5565b60405180910390f35b600060016000838152602001908152602001600020905060008160000154036103b0576040517f08c379a00000000000000000000000000000000000000000000000000000000081526004016103a790611d6e565b60405180910390fd5b8060010160009054906101000a900473ffffffffffffffffffffffffffffffffffffffff1673ffffffffffffffffffffffffffffffffffffffff163373ffffffffffffffffffffffffffffffffffffffff1614610442576040517f08c379a000000000000000000000000000000000000000000000000000000000815260040161043990611dda565b60405180910390fd5b6000600381111561045657610455611baf565b5b8160020160149054906101000a900460ff16600381111561047a57610479611baf565b5b146104ba576040517f08c379a00000000000000000000000000000000000000000000000000000000081526004016104b190611e6c565b60405180910390fd5b60038160020160146101000a81548160ff021916908360038111156104e2576104e1611baf565b5b02179055505050565b600360003373ffffffffffffffffffffffffffffffffffffffff1673ffffffffffffffffffffffffffffffffffffffff16815260200190815260200160002060009054906101000a900460ff16610577576040517f08c379a000000000000000000000000000000000000000000000000000000000815260040161056e90611ed8565b60405180910390fd5b600060016000838152602001908152602001600020905060008160000154036105d5576040517f08c379a00000000000000000000000000000000000000000000000000000000081526004016105cc90611d6e565b60405180910390fd5b600060038111156105e9576105e8611baf565b5b8160020160149054906101000a900460ff16600381111561060d5761060c611baf565b5b1461064d576040517f08c379a000000000000000000000000000000000000000000000000000000000815260040161064490611f44565b60405180910390fd5b8060010160009054906101000a900473ffffffffffffffffffffffffffffffffffffffff1673ffffffffffffffffffffffffffffffffffffffff163373ffffffffffffffffffffffffffffffffffffffff16036106df576040517f08c379a00000000000000000000000000000000000000000000000000000000081526004016106d690611fd6565b60405180910390fd5b338160020160006101000a81548173ffffffffffffffffffffffffffffffffffffffff021916908373ffffffffffffffffffffffffffffffffffffffff16021790555060018160020160146101000a81548160ff0219169083600381111561074a57610749611baf565b5b02179055503373ffffffffffffffffffffffffffffffffffffffff16827fbad5664b7641f0d520f30a264a22467ba33950946c7cb370fb01eb57a248ed2b60405160405180910390a35050565b600460009054906101000a900473ffffffffffffffffffffffffffffffffffffffff1673ffffffffffffffffffffffffffffffffffffffff163373ffffffffffffffffffffffffffffffffffffffff1614610827576040517f08c379a000000000000000000000000000000000000000000000000000000000815260040161081e90612068565b60405180910390fd5b60004790506000811161086f576040517f08c379a0000000000000000000000000000000000000000000000000000000008152600401610866906120d4565b60405180910390fd5b6000600460009054906101000a900473ffffffffffffffffffffffffffffffffffffffff1673ffffffffffffffffffffffffffffffffffffffff16826040516108b790612125565b60006040518083038185875af1925050503d80600081146108f4576040519150601f19603f3d011682016040523d82523d6000602084013e6108f9565b606091505b505090508061093d576040517f08c379a000000000000000000000000000000000000000000000000000000000815260040161093490612186565b60405180910390fd5b5050565b600360003373ffffffffffffffffffffffffffffffffffffffff1673ffffffffffffffffffffffffffffffffffffffff16815260200190815260200160002060009054906101000a900460ff166109cd576040517f08c379a00000000000000000000000000000000000000000000000000000000081526004016109c4906121f2565b60405180910390fd5b60008111610a10576040517f08c379a0000000000000000000000000000000000000000000000000000000008152600401610a079061225e565b60405180910390fd5b600080815480929190610a22906122ad565b91905055506040518060e0016040528060005481526020013373ffffffffffffffffffffffffffffffffffffffff168152602001600073ffffffffffffffffffffffffffffffffffffffff16815260200160006003811115610a8757610a86611baf565b5b81526020018481526020018381526020018281525060016000805481526020019081526020016000206000820151816000015560208201518160010160006101000a81548173ffffffffffffffffffffffffffffffffffffffff021916908373ffffffffffffffffffffffffffffffffffffffff16021790555060408201518160020160006101000a81548173ffffffffffffffffffffffffffffffffffffffff021916908373ffffffffffffffffffffffffffffffffffffffff16021790555060608201518160020160146101000a81548160ff02191690836003811115610b7357610b72611baf565b5b02179055506080820151816003019081610b8d9190612501565b5060a0820151816004019081610ba39190612501565b5060c082015181600501559050503373ffffffffffffffffffffffffffffffffffffffff166000547f4faf3c72065aaaddb6b745e48ea5a8933818b2a856fb6b21dd04b6ac9812b0428584604051610bfc9291906125d3565b60405180910390a3505050565b60006001600083815260200190815260200160002090506000816000015403610c67576040517f08c379a0000000000000000000000000000000000000000000000000000000008152600401610c5e90611d6e565b60405180910390fd5b60016003811115610c7b57610c7a611baf565b5b8160020160149054906101000a900460ff166003811115610c9f57610c9e611baf565b5b14610cdf576040517f08c379a0000000000000000000000000000000000000000000000000000000008152600401610cd69061264f565b60405180910390fd5b8060020160009054906101000a900473ffffffffffffffffffffffffffffffffffffffff1673ffffffffffffffffffffffffffffffffffffffff163373ffffffffffffffffffffffffffffffffffffffff1614610d71576040517f08c379a0000000000000000000000000000000000000000000000000000000008152600401610d68906126bb565b60405180910390fd5b80600501543414610db7576040517f08c379a0000000000000000000000000000000000000000000000000000000008152600401610dae90612727565b60405180910390fd5b3460026000848152602001908152602001600020819055503373ffffffffffffffffffffffffffffffffffffffff16827f71284872bb4c088a81295dff2513729babbccfeda38a8d824bb1a73bcaab494e34604051610e169190611b94565b60405180910390a35050565b600460009054906101000a900473ffffffffffffffffffffffffffffffffffffffff1681565b60006001600083815260200190815260200160002090506000816000015403610ea6576040517f08c379a0000000000000000000000000000000000000000000000000000000008152600401610e9d90611d6e565b60405180910390fd5b60016003811115610eba57610eb9611baf565b5b8160020160149054906101000a900460ff166003811115610ede57610edd611baf565b5b14610f1e576040517f08c379a0000000000000000000000000000000000000000000000000000000008152600401610f1590612793565b60405180910390fd5b8060010160009054906101000a900473ffffffffffffffffffffffffffffffffffffffff1673ffffffffffffffffffffffffffffffffffffffff163373ffffffffffffffffffffffffffffffffffffffff1614610fb0576040517f08c379a0000000000000000000000000000000000000000000000000000000008152600401610fa7906127ff565b60405180910390fd5b8060050154600260008481526020019081526020016000205414611009576040517f08c379a000000000000000000000000000000000000000000000000000000000815260040161100090612891565b60405180910390fd5b60028160020160146101000a81548160ff0219169083600381111561103157611030611baf565b5b02179055506000600260008481526020019081526020016000205490506000600260008581526020019081526020016000208190555060008260010160009054906101000a900473ffffffffffffffffffffffffffffffffffffffff1673ffffffffffffffffffffffffffffffffffffffff16826040516110b190612125565b60006040518083038185875af1925050503d80600081146110ee576040519150601f19603f3d011682016040523d82523d6000602084013e6110f3565b606091505b5050905080611137576040517f08c379a000000000000000000000000000000000000000000000000000000000815260040161112e906128fd565b60405180910390fd5b8260020160009054906101000a900473ffffffffffffffffffffffffffffffffffffffff1673ffffffffffffffffffffffffffffffffffffffff168360010160009054906101000a900473ffffffffffffffffffffffffffffffffffffffff1673ffffffffffffffffffffffffffffffffffffffff16857fd18f91c91f354ead2fd581c5abb7319980f2727166ea2892e8c290e8f67f7c0160405160405180910390a450505050565b600460009054906101000a900473ffffffffffffffffffffffffffffffffffffffff1673ffffffffffffffffffffffffffffffffffffffff163373ffffffffffffffffffffffffffffffffffffffff1614611270576040517f08c379a000000000000000000000000000000000000000000000000000000000815260040161126790612068565b60405180910390fd5b600073ffffffffffffffffffffffffffffffffffffffff168173ffffffffffffffffffffffffffffffffffffffff16036112df576040517f08c379a00000000000000000000000000000000000000000000000000000000081526004016112d690612969565b60405180910390fd5b6001600360008373ffffffffffffffffffffffffffffffffffffffff1673ffffffffffffffffffffffffffffffffffffffff16815260200190815260200160002060006101000a81548160ff0219169083151502179055508073ffffffffffffffffffffffffffffffffffffffff167f61864590ac01b95e445535ed8623c869a900dad8074ee5e303f700ec878817c2600160405161137e9190611b6a565b60405180910390a250565b60036020528060005260406000206000915054906101000a900460ff1681565b600460009054906101000a900473ffffffffffffffffffffffffffffffffffffffff1673ffffffffffffffffffffffffffffffffffffffff163373ffffffffffffffffffffffffffffffffffffffff1614611439576040517f08c379a000000000000000000000000000000000000000000000000000000000815260040161143090612068565b60405180910390fd5b600073ffffffffffffffffffffffffffffffffffffffff168173ffffffffffffffffffffffffffffffffffffffff16036114a8576040517f08c379a000000000000000000000000000000000000000000000000000000000815260040161149f906129d5565b60405180910390fd5b6000600360008373ffffffffffffffffffffffffffffffffffffffff1673ffffffffffffffffffffffffffffffffffffffff16815260200190815260200160002060006101000a81548160ff0219169083151502179055508073ffffffffffffffffffffffffffffffffffffffff167f61864590ac01b95e445535ed8623c869a900dad8074ee5e303f700ec878817c260006040516115479190611b6a565b60405180910390a250565b60005481565b60026020528060005260406000206000915090505481565b600460009054906101000a900473ffffffffffffffffffffffffffffffffffffffff1673ffffffffffffffffffffffffffffffffffffffff163373ffffffffffffffffffffffffffffffffffffffff1614611600576040517f08c379a00000000000000000000000000000000000000000000000000000000081526004016115f790612068565b60405180910390fd5b600073ffffffffffffffffffffffffffffffffffffffff168173ffffffffffffffffffffffffffffffffffffffff160361166f576040517f08c379a000000000000000000000000000000000000000000000000000000000815260040161166690612a67565b60405180910390fd5b80600460006101000a81548173ffffffffffffffffffffffffffffffffffffffff021916908373ffffffffffffffffffffffffffffffffffffffff16021790555050565b60016020528060005260406000206000915090508060000154908060010160009054906101000a900473ffffffffffffffffffffffffffffffffffffffff16908060020160009054906101000a900473ffffffffffffffffffffffffffffffffffffffff16908060020160149054906101000a900460ff169080600301805461173b90612324565b80601f016020809104026020016040519081016040528092919081815260200182805461176790612324565b80156117b45780601f10611789576101008083540402835291602001916117b4565b820191906000526020600020905b81548152906001019060200180831161179757829003601f168201915b5050505050908060040180546117c990612324565b80601f01602080910402602001604051908101604052809291908181526020018280546117f590612324565b80156118425780601f1061181757610100808354040283529160200191611842565b820191906000526020600020905b81548152906001019060200180831161182557829003601f168201915b5050505050908060050154905087565b6000604051905090565b600080fd5b600080fd5b6000819050919050565b61187981611866565b811461188457600080fd5b50565b60008135905061189681611870565b92915050565b6000602082840312156118b2576118b161185c565b5b60006118c084828501611887565b91505092915050565b600080fd5b600080fd5b6000601f19601f8301169050919050565b7f4e487b7100000000000000000000000000000000000000000000000000000000600052604160045260246000fd5b61191c826118d3565b810181811067ffffffffffffffff8211171561193b5761193a6118e4565b5b80604052505050565b600061194e611852565b905061195a8282611913565b919050565b600067ffffffffffffffff82111561197a576119796118e4565b5b611983826118d3565b9050602081019050919050565b82818337600083830152505050565b60006119b26119ad8461195f565b611944565b9050828152602081018484840111156119ce576119cd6118ce565b5b6119d9848285611990565b509392505050565b600082601f8301126119f6576119f56118c9565b5b8135611a0684826020860161199f565b91505092915050565b600080600060608486031215611a2857611a2761185c565b5b600084013567ffffffffffffffff811115611a4657611a45611861565b5b611a52868287016119e1565b935050602084013567ffffffffffffffff811115611a7357611a72611861565b5b611a7f868287016119e1565b9250506040611a9086828701611887565b9150509250925092565b600073ffffffffffffffffffffffffffffffffffffffff82169050919050565b6000611ac582611a9a565b9050919050565b611ad581611aba565b82525050565b6000602082019050611af06000830184611acc565b92915050565b611aff81611aba565b8114611b0a57600080fd5b50565b600081359050611b1c81611af6565b92915050565b600060208284031215611b3857611b3761185c565b5b6000611b4684828501611b0d565b91505092915050565b60008115159050919050565b611b6481611b4f565b82525050565b6000602082019050611b7f6000830184611b5b565b92915050565b611b8e81611866565b82525050565b6000602082019050611ba96000830184611b85565b92915050565b7f4e487b7100000000000000000000000000000000000000000000000000000000600052602160045260246000fd5b60048110611bef57611bee611baf565b5b50565b6000819050611c0082611bde565b919050565b6000611c1082611bf2565b9050919050565b611c2081611c05565b82525050565b600081519050919050565b600082825260208201905092915050565b60005b83811015611c60578082015181840152602081019050611c45565b60008484015250505050565b6000611c7782611c26565b611c818185611c31565b9350611c91818560208601611c42565b611c9a816118d3565b840191505092915050565b600060e082019050611cba600083018a611b85565b611cc76020830189611acc565b611cd46040830188611acc565b611ce16060830187611c17565b8181036080830152611cf38186611c6c565b905081810360a0830152611d078185611c6c565b9050611d1660c0830184611b85565b98975050505050505050565b7f50726f706572747920646f6573206e6f74206578697374000000000000000000600082015250565b6000611d58601783611c31565b9150611d6382611d22565b602082019050919050565b60006020820190508181036000830152611d8781611d4b565b9050919050565b7f4f6e6c792073656c6c65722063616e2064656c69737400000000000000000000600082015250565b6000611dc4601683611c31565b9150611dcf82611d8e565b602082019050919050565b60006020820190508181036000830152611df381611db7565b9050919050565b7f43616e6e6f742064656c69737420616674657220636f6e7472616374206f722060008201527f73616c6500000000000000000000000000000000000000000000000000000000602082015250565b6000611e56602483611c31565b9150611e6182611dfa565b604082019050919050565b60006020820190508181036000830152611e8581611e49565b9050919050565b7f4275796572206d757374206265204b5943207665726966696564000000000000600082015250565b6000611ec2601a83611c31565b9150611ecd82611e8c565b602082019050919050565b60006020820190508181036000830152611ef181611eb5565b9050919050565b7f50726f7065727479206e6f7420617661696c61626c6520666f72206f66666572600082015250565b6000611f2e602083611c31565b9150611f3982611ef8565b602082019050919050565b60006020820190508181036000830152611f5d81611f21565b9050919050565b7f53656c6c65722063616e6e6f74206d616b65206f66666572206f6e206f776e2060008201527f70726f7065727479000000000000000000000000000000000000000000000000602082015250565b6000611fc0602883611c31565b9150611fcb82611f64565b604082019050919050565b60006020820190508181036000830152611fef81611fb3565b9050919050565b7f4f6e6c79204b59432070726f76696465722063616e20706572666f726d20746860008201527f697320616374696f6e0000000000000000000000000000000000000000000000602082015250565b6000612052602983611c31565b915061205d82611ff6565b604082019050919050565b6000602082019050818103600083015261208181612045565b9050919050565b7f4e6f7468696e6720746f20776974686472617700000000000000000000000000600082015250565b60006120be601383611c31565b91506120c982612088565b602082019050919050565b600060208201905081810360008301526120ed816120b1565b9050919050565b600081905092915050565b50565b600061210f6000836120f4565b915061211a826120ff565b600082019050919050565b600061213082612102565b9150819050919050565b7f5769746864726177206661696c65640000000000000000000000000000000000600082015250565b6000612170600f83611c31565b915061217b8261213a565b602082019050919050565b6000602082019050818103600083015261219f81612163565b9050919050565b7f53656c6c6572206d757374206265204b59432076657269666965640000000000600082015250565b60006121dc601b83611c31565b91506121e7826121a6565b602082019050919050565b6000602082019050818103600083015261220b816121cf565b9050919050565b7f5072696365206d7573742062652067726561746572207468616e207a65726f00600082015250565b6000612248601f83611c31565b915061225382612212565b602082019050919050565b600060208201905081810360008301526122778161223b565b9050919050565b7f4e487b7100000000000000000000000000000000000000000000000000000000600052601160045260246000fd5b60006122b882611866565b91507fffffffffffffffffffffffffffffffffffffffffffffffffffffffffffffffff82036122ea576122e961227e565b5b600182019050919050565b7f4e487b7100000000000000000000000000000000000000000000000000000000600052602260045260246000fd5b6000600282049050600182168061233c57607f821691505b60208210810361234f5761234e6122f5565b5b50919050565b60008190508160005260206000209050919050565b60006020601f8301049050919050565b600082821b905092915050565b6000600883026123b77fffffffffffffffffffffffffffffffffffffffffffffffffffffffffffffffff8261237a565b6123c1868361237a565b95508019841693508086168417925050509392505050565b6000819050919050565b60006123fe6123f96123f484611866565b6123d9565b611866565b9050919050565b6000819050919050565b612418836123e3565b61242c61242482612405565b848454612387565b825550505050565b600090565b612441612434565b61244c81848461240f565b505050565b5b8181101561247057612465600082612439565b600181019050612452565b5050565b601f8211156124b55761248681612355565b61248f8461236a565b8101602085101561249e578190505b6124b26124aa8561236a565b830182612451565b50505b505050565b600082821c905092915050565b60006124d8600019846008026124ba565b1980831691505092915050565b60006124f183836124c7565b9150826002028217905092915050565b61250a82611c26565b67ffffffffffffffff811115612523576125226118e4565b5b61252d8254612324565b612538828285612474565b600060209050601f83116001811461256b5760008415612559578287015190505b61256385826124e5565b8655506125cb565b601f19841661257986612355565b60005b828110156125a15784890151825560018201915060208501945060208101905061257c565b868310156125be57848901516125ba601f8916826124c7565b8355505b6001600288020188555050505b505050505050565b600060408201905081810360008301526125ed8185611c6c565b90506125fc6020830184611b85565b9392505050565b7f50726f7065727479206973206e6f7420756e64657220636f6e74726163740000600082015250565b6000612639601e83611c31565b915061264482612603565b602082019050919050565b600060208201905081810360008301526126688161262c565b9050919050565b7f4f6e6c792062757965722063616e206465706f736974207061796d656e740000600082015250565b60006126a5601e83611c31565b91506126b08261266f565b602082019050919050565b600060208201905081810360008301526126d481612698565b9050919050565b7f5061796d656e74206d7573742062652066756c6c207072696365000000000000600082015250565b6000612711601a83611c31565b915061271c826126db565b602082019050919050565b6000602082019050818103600083015261274081612704565b9050919050565b7f53616c65206e6f74207265616479000000000000000000000000000000000000600082015250565b600061277d600e83611c31565b915061278882612747565b602082019050919050565b600060208201905081810360008301526127ac81612770565b9050919050565b7f4f6e6c792073656c6c65722063616e2066696e616c697a652073616c65000000600082015250565b60006127e9601d83611c31565b91506127f4826127b3565b602082019050919050565b60006020820190508181036000830152612818816127dc565b9050919050565b7f5061796d656e74206e6f742066756c6c79206465706f736974656420696e206560008201527f7363726f77000000000000000000000000000000000000000000000000000000602082015250565b600061287b602583611c31565b91506128868261281f565b604082019050919050565b600060208201905081810360008301526128aa8161286e565b9050919050565b7f4661696c656420746f2073656e642066756e647320746f2073656c6c65720000600082015250565b60006128e7601e83611c31565b91506128f2826128b1565b602082019050919050565b60006020820190508181036000830152612916816128da565b9050919050565b7f43616e6e6f7420766572696679207a65726f2061646472657373000000000000600082015250565b6000612953601a83611c31565b915061295e8261291d565b602082019050919050565b6000602082019050818103600083015261298281612946565b9050919050565b7f43616e6e6f7420756e766572696679207a65726f206164647265737300000000600082015250565b60006129bf601c83611c31565b91506129ca82612989565b602082019050919050565b600060208201905081810360008301526129ee816129b2565b9050919050565b7f4e6577204b59432070726f76696465722063616e6e6f74206265207a65726f2060008201527f6164647265737300000000000000000000000000000000000000000000000000602082015250565b6000612a51602783611c31565b9150612a5c826129f5565b604082019050919050565b60006020820190508181036000830152612a8081612a44565b905091905056fea26469706673582212206ebde6140821cd0c3304852612f7a9a78090df7b88b318cc2640a684b605765664736f6c63430008140033",
  "linkReferences": {},
  "deployedLinkReferences": {}
}