{
  "_format": "hh-sol-artifact-1",
  "contractName": "ShareEscrow",
  "sourceName": "contracts/ShareEscrow.sol",
  "abi": [
    {
      "inputs": [],
      "stateMutability": "nonpayable",
      "type": "constructor"
    },
    {
      "inputs": [
        {
          "internalType": "address",
          "name": "owner",
          "type": "address"
        }
      ],
      "name": "OwnableInvalidOwner",
      "type": "error"
    },
    {
      "inputs": [
        {
          "internalType": "address",
          "name": "account",
          "type": "address"
        }
      ],
      "name": "OwnableUnauthorizedAccount",
      "type": "error"
    },
    {
      "anonymous": false,
      "inputs": [
        {
          "indexed": true,
          "internalType": "uint256",
          "name": "dealId",
          "type": "uint256"
        }
      ],
      "name": "BuyerApproved",
      "type": "event"
    },
    {
      "anonymous": false,
      "inputs": [
        {
          "indexed": true,
          "internalType": "uint256",
          "name": "dealId",
          "type": "uint256"
        }
      ],
      "name": "DealCancelled",
      "type": "event"
    },
    {
      "anonymous": false,
      "inputs": [
        {
          "indexed": true,
          "internalType": "uint256",
          "name": "dealId",
          "type": "uint256"
        },
        {
          "indexed": true,
          "internalType": "address",
          "name": "seller",
          "type": "address"
        },
        {
          "indexed": true,
          "internalType": "address",
          "name": "buyer",
          "type": "address"
        },
        {
          "indexed": false,
          "internalType": "uint256",
          "name": "amountOfShares",
          "type": "uint256"
        },
        {
          "indexed": false,
          "internalType": "uint256",
          "name": "totalPrice",
          "type": "uint256"
        }
      ],
      "name": "DealCreated",
      "type": "event"
    },
    {
      "anonymous": false,
      "inputs": [
        {
          "indexed": true,
          "internalType": "uint256",
          "name": "dealId",
          "type": "uint256"
        }
      ],
      "name": "DealExecuted",
      "type": "event"
    },
    {
      "anonymous": false,
      "inputs": [
        {
          "indexed": true,
          "internalType": "address",
          "name": "previousOwner",
          "type": "address"
        },
        {
          "indexed": true,
          "internalType": "address",
          "name": "newOwner",
          "type": "address"
        }
      ],
      "name": "OwnershipTransferred",
      "type": "event"
    },
    {
      "anonymous": false,
      "inputs": [
        {
          "indexed": true,
          "internalType": "uint256",
          "name": "dealId",
          "type": "uint256"
        }
      ],
      "name": "SellerApproved",
      "type": "event"
    },
    {
      "inputs": [
        {
          "internalType": "uint256",
          "name": "_dealId",
          "type": "uint256"
        },
        {
          "internalType": "address",
          "name": "_stablecoinContract",
          "type": "address"
        }
      ],
      "name": "buyerApproveAndDeposit",
      "outputs": [],
      "stateMutability": "nonpayable",
      "type": "function"
    },
    {
      "inputs": [
        {
          "internalType": "uint256",
          "name": "_dealId",
          "type": "uint256"
        },
        {
          "internalType": "address",
          "name": "_stablecoinContract",
          "type": "address"
        }
      ],
      "name": "cancelDeal",
      "outputs": [],
      "stateMutability": "nonpayable",
      "type": "function"
    },
    {
      "inputs": [
        {
          "internalType": "address",
          "name": "_buyer",
          "type": "address"
        },
        {
          "internalType": "address",
          "name": "_tokenContract",
          "type": "address"
        },
        {
          "internalType": "uint256",
          "name": "_propertyNFTId",
          "type": "uint256"
        },
        {
          "internalType": "uint256",
          "name": "_amountOfShares",
          "type": "uint256"
        },
        {
          "internalType": "uint256",
          "name": "_pricePerShare",
          "type": "uint256"
        },
        {
          "internalType": "uint256",
          "name": "_depositPercentage",
          "type": "uint256"
        }
      ],
      "name": "createDeal",
      "outputs": [],
      "stateMutability": "nonpayable",
      "type": "function"
    },
    {
      "inputs": [
        {
          "internalType": "uint256",
          "name": "",
          "type": "uint256"
        }
      ],
      "name": "deals",
      "outputs": [
        {
          "internalType": "address",
          "name": "seller",
          "type": "address"
        },
        {
          "internalType": "address",
          "name": "buyer",
          "type": "address"
        },
        {
          "internalType": "address",
          "name": "tokenContract",
          "type": "address"
        },
        {
          "internalType": "uint256",
          "name": "propertyNFTId",
          "type": "uint256"
        },
        {
          "internalType": "uint256",
          "name": "amountOfShares",
          "type": "uint256"
        },
        {
          "internalType": "uint256",
          "name": "pricePerShare",
          "type": "uint256"
        },
        {
          "internalType": "uint256",
          "name": "depositAmount",
          "type": "uint256"
        },
        {
          "internalType": "bool",
          "name": "sellerApproved",
          "type": "bool"
        },
        {
          "internalType": "bool",
          "name": "buyerApproved",
          "type": "bool"
        },
        {
          "internalType": "bool",
          "name": "dealCompleted",
          "type": "bool"
        },
        {
          "internalType": "bool",
          "name": "dealCancelled",
          "type": "bool"
        }
      ],
      "stateMutability": "view",
      "type": "function"
    },
    {
      "inputs": [
        {
          "internalType": "uint256",
          "name": "_dealId",
          "type": "uint256"
        },
        {
          "internalType": "address",
          "name": "_stablecoinContract",
          "type": "address"
        }
      ],
      "name": "executeDeal",
      "outputs": [],
      "stateMutability": "nonpayable",
      "type": "function"
    },
    {
      "inputs": [],
      "name": "nextDealId",
      "outputs": [
        {
          "internalType": "uint256",
          "name": "",
          "type": "uint256"
        }
      ],
      "stateMutability": "view",
      "type": "function"
    },
    {
      "inputs": [],
      "name": "owner",
      "outputs": [
        {
          "internalType": "address",
          "name": "",
          "type": "address"
        }
      ],
      "stateMutability": "view",
      "type": "function"
    },
    {
      "inputs": [],
      "name": "renounceOwnership",
      "outputs": [],
      "stateMutability": "nonpayable",
      "type": "function"
    },
    {
      "inputs": [
        {
          "internalType": "address",
          "name": "newOwner",
          "type": "address"
        }
      ],
      "name": "transferOwnership",
      "outputs": [],
      "stateMutability": "nonpayable",
      "type": "function"
    }
  ],
  "bytecode": "0x60806040523480156200001157600080fd5b5033600073ffffffffffffffffffffffffffffffffffffffff168173ffffffffffffffffffffffffffffffffffffffff1603620000885760006040517f1e4fbdf70000000000000000000000000000000000000000000000000000000081526004016200007f9190620001b0565b60405180910390fd5b6200009981620000a760201b60201c565b5060018081905550620001cd565b60008060009054906101000a900473ffffffffffffffffffffffffffffffffffffffff169050816000806101000a81548173ffffffffffffffffffffffffffffffffffffffff021916908373ffffffffffffffffffffffffffffffffffffffff1602179055508173ffffffffffffffffffffffffffffffffffffffff168173ffffffffffffffffffffffffffffffffffffffff167f8be0079c531659141344cd1fd0a4f28419497f9722a3daafe3b4186f6b6457e060405160405180910390a35050565b600073ffffffffffffffffffffffffffffffffffffffff82169050919050565b600062000198826200016b565b9050919050565b620001aa816200018b565b82525050565b6000602082019050620001c760008301846200019f565b92915050565b6127ec80620001dd6000396000f3fe608060405234801561001057600080fd5b50600436106100935760003560e01c80638da5cb5b116100665780638da5cb5b146101165780639f7ddb8114610134578063c0debd5614610150578063c1d120451461016c578063f2fde38b1461018857610093565b806303988f84146100985780634d9879e3146100d2578063715018a6146100f057806382189714146100fa575b600080fd5b6100b260048036038101906100ad9190611797565b6101a4565b6040516100c99b9a9998979695949392919061182f565b60405180910390f35b6100da610292565b6040516100e791906118da565b60405180910390f35b6100f8610298565b005b610114600480360381019061010f9190611921565b6102ac565b005b61011e6107b9565b60405161012b91906119ae565b60405180910390f35b61014e600480360381019061014991906119c9565b6107e2565b005b61016a600480360381019061016591906119c9565b610aa9565b005b610186600480360381019061018191906119c9565b610fb6565b005b6101a2600480360381019061019d9190611a09565b611583565b005b60026020528060005260406000206000915090508060000160009054906101000a900473ffffffffffffffffffffffffffffffffffffffff16908060010160009054906101000a900473ffffffffffffffffffffffffffffffffffffffff16908060020160009054906101000a900473ffffffffffffffffffffffffffffffffffffffff16908060030154908060040154908060050154908060060154908060070160009054906101000a900460ff16908060070160019054906101000a900460ff16908060070160029054906101000a900460ff16908060070160039054906101000a900460ff1690508b565b60015481565b6102a0611609565b6102aa6000611690565b565b600083116102ef576040517f08c379a00000000000000000000000000000000000000000000000000000000081526004016102e690611ab9565b60405180910390fd5b60008211610332576040517f08c379a000000000000000000000000000000000000000000000000000000000815260040161032990611b4b565b60405180910390fd5b6064811115610376576040517f08c379a000000000000000000000000000000000000000000000000000000000815260040161036d90611bdd565b60405180910390fd5b600085905060008173ffffffffffffffffffffffffffffffffffffffff1663313ce5676040518163ffffffff1660e01b8152600401602060405180830381865afa1580156103c8573d6000803e3d6000fd5b505050506040513d601f19601f820116820180604052508101906103ec9190611c36565b60ff169050600081600a6104009190611dc5565b8661040b9190611e10565b90506000858761041b9190611e10565b905060006064868361042d9190611e10565b6104379190611e81565b90508473ffffffffffffffffffffffffffffffffffffffff166323b872dd3330866040518463ffffffff1660e01b815260040161047693929190611eb2565b6020604051808303816000875af1158015610495573d6000803e3d6000fd5b505050506040513d601f19601f820116820180604052508101906104b99190611f15565b6104f8576040517f08c379a00000000000000000000000000000000000000000000000000000000081526004016104ef90611fb4565b60405180910390fd5b6040518061016001604052803373ffffffffffffffffffffffffffffffffffffffff1681526020018c73ffffffffffffffffffffffffffffffffffffffff1681526020018b73ffffffffffffffffffffffffffffffffffffffff1681526020018a81526020018981526020018881526020018281526020016001151581526020016000151581526020016000151581526020016000151581525060026000600154815260200190815260200160002060008201518160000160006101000a81548173ffffffffffffffffffffffffffffffffffffffff021916908373ffffffffffffffffffffffffffffffffffffffff16021790555060208201518160010160006101000a81548173ffffffffffffffffffffffffffffffffffffffff021916908373ffffffffffffffffffffffffffffffffffffffff16021790555060408201518160020160006101000a81548173ffffffffffffffffffffffffffffffffffffffff021916908373ffffffffffffffffffffffffffffffffffffffff160217905550606082015181600301556080820151816004015560a0820151816005015560c0820151816006015560e08201518160070160006101000a81548160ff0219169083151502179055506101008201518160070160016101000a81548160ff0219169083151502179055506101208201518160070160026101000a81548160ff0219169083151502179055506101408201518160070160036101000a81548160ff0219169083151502179055509050508a73ffffffffffffffffffffffffffffffffffffffff163373ffffffffffffffffffffffffffffffffffffffff166001547f584834bba667bf1cd5aa00cfe8042067a3d6b5da7b1a555dc640e003ea7328df8b8660405161078c929190611fd4565b60405180910390a4600160008154809291906107a790611ffd565b91905055505050505050505050505050565b60008060009054906101000a900473ffffffffffffffffffffffffffffffffffffffff16905090565b60006002600084815260200190815260200160002090508060010160009054906101000a900473ffffffffffffffffffffffffffffffffffffffff1673ffffffffffffffffffffffffffffffffffffffff163373ffffffffffffffffffffffffffffffffffffffff161461088b576040517f08c379a0000000000000000000000000000000000000000000000000000000008152600401610882906120b7565b60405180910390fd5b8060070160019054906101000a900460ff16156108dd576040517f08c379a00000000000000000000000000000000000000000000000000000000081526004016108d490612123565b60405180910390fd5b8060070160029054906101000a900460ff1615801561090b57508060070160039054906101000a900460ff16155b61094a576040517f08c379a0000000000000000000000000000000000000000000000000000000008152600401610941906121b5565b60405180910390fd5b6000816006015411610991576040517f08c379a000000000000000000000000000000000000000000000000000000000815260040161098890612247565b60405180910390fd5b60008290508073ffffffffffffffffffffffffffffffffffffffff166323b872dd333085600601546040518463ffffffff1660e01b81526004016109d793929190611eb2565b6020604051808303816000875af11580156109f6573d6000803e3d6000fd5b505050506040513d601f19601f82011682018060405250810190610a1a9190611f15565b610a59576040517f08c379a0000000000000000000000000000000000000000000000000000000008152600401610a50906122d9565b60405180910390fd5b60018260070160016101000a81548160ff021916908315150217905550837f0af878bfd1ac3fdb5535c1ba44c1a2ccafc4522fdd5bc52deec2dac35b8e289660405160405180910390a250505050565b60006002600084815260200190815260200160002090508060070160009054906101000a900460ff168015610aec57508060070160019054906101000a900460ff165b610b2b576040517f08c379a0000000000000000000000000000000000000000000000000000000008152600401610b229061236b565b60405180910390fd5b8060070160029054906101000a900460ff16158015610b5957508060070160039054906101000a900460ff16155b610b98576040517f08c379a0000000000000000000000000000000000000000000000000000000008152600401610b8f906123fd565b60405180910390fd5b60008160020160009054906101000a900473ffffffffffffffffffffffffffffffffffffffff16905060008390506000836006015484600501548560040154610be19190611e10565b610beb919061241d565b90506000811115610cfe578173ffffffffffffffffffffffffffffffffffffffff166323b872dd8560010160009054906101000a900473ffffffffffffffffffffffffffffffffffffffff168660000160009054906101000a900473ffffffffffffffffffffffffffffffffffffffff16846040518463ffffffff1660e01b8152600401610c7b93929190611eb2565b6020604051808303816000875af1158015610c9a573d6000803e3d6000fd5b505050506040513d601f19601f82011682018060405250810190610cbe9190611f15565b610cfd576040517f08c379a0000000000000000000000000000000000000000000000000000000008152600401610cf4906124c3565b60405180910390fd5b5b60008373ffffffffffffffffffffffffffffffffffffffff1663313ce5676040518163ffffffff1660e01b8152600401602060405180830381865afa158015610d4b573d6000803e3d6000fd5b505050506040513d601f19601f82011682018060405250810190610d6f9190611c36565b60ff1690508373ffffffffffffffffffffffffffffffffffffffff1663a9059cbb8660010160009054906101000a900473ffffffffffffffffffffffffffffffffffffffff1683600a610dc29190611dc5565b8860040154610dd19190611e10565b6040518363ffffffff1660e01b8152600401610dee9291906124e3565b6020604051808303816000875af1158015610e0d573d6000803e3d6000fd5b505050506040513d601f19601f82011682018060405250810190610e319190611f15565b610e70576040517f08c379a0000000000000000000000000000000000000000000000000000000008152600401610e6790612558565b60405180910390fd5b600085600601541115610f63578273ffffffffffffffffffffffffffffffffffffffff1663a9059cbb8660000160009054906101000a900473ffffffffffffffffffffffffffffffffffffffff1687600601546040518363ffffffff1660e01b8152600401610ee09291906124e3565b6020604051808303816000875af1158015610eff573d6000803e3d6000fd5b505050506040513d601f19601f82011682018060405250810190610f239190611f15565b610f62576040517f08c379a0000000000000000000000000000000000000000000000000000000008152600401610f59906125ea565b60405180910390fd5b5b60018560070160026101000a81548160ff021916908315150217905550867ffd4e64c63df7133e7fddd36ba033b20a6951c231320cd81a4bfd3523c5ddeca760405160405180910390a250505050505050565b60006002600084815260200190815260200160002090508060000160009054906101000a900473ffffffffffffffffffffffffffffffffffffffff1673ffffffffffffffffffffffffffffffffffffffff163373ffffffffffffffffffffffffffffffffffffffff16148061107a57508060010160009054906101000a900473ffffffffffffffffffffffffffffffffffffffff1673ffffffffffffffffffffffffffffffffffffffff163373ffffffffffffffffffffffffffffffffffffffff16145b806110b757506110886107b9565b73ffffffffffffffffffffffffffffffffffffffff163373ffffffffffffffffffffffffffffffffffffffff16145b6110f6576040517f08c379a00000000000000000000000000000000000000000000000000000000081526004016110ed9061267c565b60405180910390fd5b8060070160029054906101000a900460ff1615801561112457508060070160039054906101000a900460ff16155b611163576040517f08c379a000000000000000000000000000000000000000000000000000000000815260040161115a906123fd565b60405180910390fd5b60018160070160036101000a81548160ff02191690831515021790555060008160020160009054906101000a900473ffffffffffffffffffffffffffffffffffffffff169050600083905060008273ffffffffffffffffffffffffffffffffffffffff1663313ce5676040518163ffffffff1660e01b8152600401602060405180830381865afa1580156111fb573d6000803e3d6000fd5b505050506040513d601f19601f8201168201806040525081019061121f9190611c36565b60ff16905080600a6112319190611dc5565b84600401546112409190611e10565b8373ffffffffffffffffffffffffffffffffffffffff166370a08231306040518263ffffffff1660e01b815260040161127991906119ae565b602060405180830381865afa158015611296573d6000803e3d6000fd5b505050506040513d601f19601f820116820180604052508101906112ba91906126b1565b106113bc578273ffffffffffffffffffffffffffffffffffffffff1663a9059cbb8560000160009054906101000a900473ffffffffffffffffffffffffffffffffffffffff1683600a61130d9190611dc5565b876004015461131c9190611e10565b6040518363ffffffff1660e01b81526004016113399291906124e3565b6020604051808303816000875af1158015611358573d6000803e3d6000fd5b505050506040513d601f19601f8201168201806040525081019061137c9190611f15565b6113bb576040517f08c379a00000000000000000000000000000000000000000000000000000000081526004016113b29061272a565b60405180910390fd5b5b8360070160019054906101000a900460ff1680156113de575060008460060154115b1561154e5783600601548273ffffffffffffffffffffffffffffffffffffffff166370a08231306040518263ffffffff1660e01b815260040161142191906119ae565b602060405180830381865afa15801561143e573d6000803e3d6000fd5b505050506040513d601f19601f8201168201806040525081019061146291906126b1565b1061154d578173ffffffffffffffffffffffffffffffffffffffff1663a9059cbb8560010160009054906101000a900473ffffffffffffffffffffffffffffffffffffffff1686600601546040518363ffffffff1660e01b81526004016114ca9291906124e3565b6020604051808303816000875af11580156114e9573d6000803e3d6000fd5b505050506040513d601f19601f8201168201806040525081019061150d9190611f15565b61154c576040517f08c379a000000000000000000000000000000000000000000000000000000000815260040161154390612796565b60405180910390fd5b5b5b857f31b0c01e8429f81903c3f8adc204767b8efa7cfca91a00f3b4bb40ce63c8a20660405160405180910390a2505050505050565b61158b611609565b600073ffffffffffffffffffffffffffffffffffffffff168173ffffffffffffffffffffffffffffffffffffffff16036115fd5760006040517f1e4fbdf70000000000000000000000000000000000000000000000000000000081526004016115f491906119ae565b60405180910390fd5b61160681611690565b50565b611611611754565b73ffffffffffffffffffffffffffffffffffffffff1661162f6107b9565b73ffffffffffffffffffffffffffffffffffffffff161461168e57611652611754565b6040517f118cdaa700000000000000000000000000000000000000000000000000000000815260040161168591906119ae565b60405180910390fd5b565b60008060009054906101000a900473ffffffffffffffffffffffffffffffffffffffff169050816000806101000a81548173ffffffffffffffffffffffffffffffffffffffff021916908373ffffffffffffffffffffffffffffffffffffffff1602179055508173ffffffffffffffffffffffffffffffffffffffff168173ffffffffffffffffffffffffffffffffffffffff167f8be0079c531659141344cd1fd0a4f28419497f9722a3daafe3b4186f6b6457e060405160405180910390a35050565b600033905090565b600080fd5b6000819050919050565b61177481611761565b811461177f57600080fd5b50565b6000813590506117918161176b565b92915050565b6000602082840312156117ad576117ac61175c565b5b60006117bb84828501611782565b91505092915050565b600073ffffffffffffffffffffffffffffffffffffffff82169050919050565b60006117ef826117c4565b9050919050565b6117ff816117e4565b82525050565b61180e81611761565b82525050565b60008115159050919050565b61182981611814565b82525050565b600061016082019050611845600083018e6117f6565b611852602083018d6117f6565b61185f604083018c6117f6565b61186c606083018b611805565b611879608083018a611805565b61188660a0830189611805565b61189360c0830188611805565b6118a060e0830187611820565b6118ae610100830186611820565b6118bc610120830185611820565b6118ca610140830184611820565b9c9b505050505050505050505050565b60006020820190506118ef6000830184611805565b92915050565b6118fe816117e4565b811461190957600080fd5b50565b60008135905061191b816118f5565b92915050565b60008060008060008060c0878903121561193e5761193d61175c565b5b600061194c89828a0161190c565b965050602061195d89828a0161190c565b955050604061196e89828a01611782565b945050606061197f89828a01611782565b935050608061199089828a01611782565b92505060a06119a189828a01611782565b9150509295509295509295565b60006020820190506119c360008301846117f6565b92915050565b600080604083850312156119e0576119df61175c565b5b60006119ee85828601611782565b92505060206119ff8582860161190c565b9150509250929050565b600060208284031215611a1f57611a1e61175c565b5b6000611a2d8482850161190c565b91505092915050565b600082825260208201905092915050565b7f416d6f756e74206f6620736861726573206d757374206265206772656174657260008201527f207468616e207a65726f00000000000000000000000000000000000000000000602082015250565b6000611aa3602a83611a36565b9150611aae82611a47565b604082019050919050565b60006020820190508181036000830152611ad281611a96565b9050919050565b7f507269636520706572207368617265206d75737420626520677265617465722060008201527f7468616e207a65726f0000000000000000000000000000000000000000000000602082015250565b6000611b35602983611a36565b9150611b4082611ad9565b604082019050919050565b60006020820190508181036000830152611b6481611b28565b9050919050565b7f4465706f7369742070657263656e746167652063616e6e6f742065786365656460008201527f2031303025000000000000000000000000000000000000000000000000000000602082015250565b6000611bc7602583611a36565b9150611bd282611b6b565b604082019050919050565b60006020820190508181036000830152611bf681611bba565b9050919050565b600060ff82169050919050565b611c1381611bfd565b8114611c1e57600080fd5b50565b600081519050611c3081611c0a565b92915050565b600060208284031215611c4c57611c4b61175c565b5b6000611c5a84828501611c21565b91505092915050565b7f4e487b7100000000000000000000000000000000000000000000000000000000600052601160045260246000fd5b60008160011c9050919050565b6000808291508390505b6001851115611ce957808604811115611cc557611cc4611c63565b5b6001851615611cd45780820291505b8081029050611ce285611c92565b9450611ca9565b94509492505050565b600082611d025760019050611dbe565b81611d105760009050611dbe565b8160018114611d265760028114611d3057611d5f565b6001915050611dbe565b60ff841115611d4257611d41611c63565b5b8360020a915084821115611d5957611d58611c63565b5b50611dbe565b5060208310610133831016604e8410600b8410161715611d945782820a905083811115611d8f57611d8e611c63565b5b611dbe565b611da18484846001611c9f565b92509050818404811115611db857611db7611c63565b5b81810290505b9392505050565b6000611dd082611761565b9150611ddb83611761565b9250611e087fffffffffffffffffffffffffffffffffffffffffffffffffffffffffffffffff8484611cf2565b905092915050565b6000611e1b82611761565b9150611e2683611761565b9250828202611e3481611761565b91508282048414831517611e4b57611e4a611c63565b5b5092915050565b7f4e487b7100000000000000000000000000000000000000000000000000000000600052601260045260246000fd5b6000611e8c82611761565b9150611e9783611761565b925082611ea757611ea6611e52565b5b828204905092915050565b6000606082019050611ec760008301866117f6565b611ed460208301856117f6565b611ee16040830184611805565b949350505050565b611ef281611814565b8114611efd57600080fd5b50565b600081519050611f0f81611ee9565b92915050565b600060208284031215611f2b57611f2a61175c565b5b6000611f3984828501611f00565b91505092915050565b7f5368617265207472616e7366657220746f20657363726f77206661696c65642e60008201527f20436865636b20616c6c6f77616e63652e000000000000000000000000000000602082015250565b6000611f9e603183611a36565b9150611fa982611f42565b604082019050919050565b60006020820190508181036000830152611fcd81611f91565b9050919050565b6000604082019050611fe96000830185611805565b611ff66020830184611805565b9392505050565b600061200882611761565b91507fffffffffffffffffffffffffffffffffffffffffffffffffffffffffffffffff820361203a57612039611c63565b5b600182019050919050565b7f4f6e6c792062757965722063616e20617070726f766520616e64206465706f7360008201527f6974000000000000000000000000000000000000000000000000000000000000602082015250565b60006120a1602283611a36565b91506120ac82612045565b604082019050919050565b600060208201905081810360008301526120d081612094565b9050919050565b7f4465616c20616c726561647920617070726f7665642062792062757965720000600082015250565b600061210d601e83611a36565b9150612118826120d7565b602082019050919050565b6000602082019050818103600083015261213c81612100565b9050919050565b7f4465616c20616c726561647920636f6d706c65746564206f722063616e63656c60008201527f6c65640000000000000000000000000000000000000000000000000000000000602082015250565b600061219f602383611a36565b91506121aa82612143565b604082019050919050565b600060208201905081810360008301526121ce81612192565b9050919050565b7f4e6f206465706f73697420726571756972656420666f7220746869732064656160008201527f6c00000000000000000000000000000000000000000000000000000000000000602082015250565b6000612231602183611a36565b915061223c826121d5565b604082019050919050565b6000602082019050818103600083015261226081612224565b9050919050565b7f4465706f736974206661696c65642e20436865636b20737461626c65636f696e60008201527f20616c6c6f77616e63652e000000000000000000000000000000000000000000602082015250565b60006122c3602b83611a36565b91506122ce82612267565b604082019050919050565b600060208201905081810360008301526122f2816122b6565b9050919050565b7f426f74682070617274696573206d75737420617070726f76652074686520646560008201527f616c2e0000000000000000000000000000000000000000000000000000000000602082015250565b6000612355602383611a36565b9150612360826122f9565b604082019050919050565b6000602082019050818103600083015261238481612348565b9050919050565b7f4465616c20616c726561647920636f6d706c65746564206f722063616e63656c60008201527f6c65642e00000000000000000000000000000000000000000000000000000000602082015250565b60006123e7602483611a36565b91506123f28261238b565b604082019050919050565b60006020820190508181036000830152612416816123da565b9050919050565b600061242882611761565b915061243383611761565b925082820390508181111561244b5761244a611c63565b5b92915050565b7f46696e616c207061796d656e742066726f6d20627579657220746f2073656c6c60008201527f6572206661696c65642e20436865636b20616c6c6f77616e63652e0000000000602082015250565b60006124ad603b83611a36565b91506124b882612451565b604082019050919050565b600060208201905081810360008301526124dc816124a0565b9050919050565b60006040820190506124f860008301856117f6565b6125056020830184611805565b9392505050565b7f5368617265732072656c6561736520746f206275796572206661696c65642e00600082015250565b6000612542601f83611a36565b915061254d8261250c565b602082019050919050565b6000602082019050818103600083015261257181612535565b9050919050565b7f4465706f736974207472616e7366657220746f2073656c6c6572206661696c6560008201527f642e000000000000000000000000000000000000000000000000000000000000602082015250565b60006125d4602283611a36565b91506125df82612578565b604082019050919050565b60006020820190508181036000830152612603816125c7565b9050919050565b7f4f6e6c792073656c6c65722c2062757965722c206f72206f776e65722063616e60008201527f2063616e63656c2e000000000000000000000000000000000000000000000000602082015250565b6000612666602883611a36565b91506126718261260a565b604082019050919050565b6000602082019050818103600083015261269581612659565b9050919050565b6000815190506126ab8161176b565b92915050565b6000602082840312156126c7576126c661175c565b5b60006126d58482850161269c565b91505092915050565b7f53686172657320726566756e6420746f2073656c6c6572206661696c65642e00600082015250565b6000612714601f83611a36565b915061271f826126de565b602082019050919050565b6000602082019050818103600083015261274381612707565b9050919050565b7f4465706f73697420726566756e6420746f206275796572206661696c65642e00600082015250565b6000612780601f83611a36565b915061278b8261274a565b602082019050919050565b600060208201905081810360008301526127af81612773565b905091905056fea26469706673582212205ef223dc2ac9d3d876f086f9536f8f28d1def0123f27995aa903308120524afa64736f6c63430008140033",
  "linkReferences": {},
  "deployedLinkReferences": {}
}